S0180000636D5F70676D5F756E6976657273616C2E7372656361
S11340001833002009D40100B3E30100B7E3010031
S1134010000000000000000000000000000000009C
S1134020000000000000000000000000BBE30100ED
S11340300000000000000000BFE301003B17010086
S1134040C3E30100C7E30100CBE30100CFE30100B8
S1134050D3E30100D7E30100DBE30100DFE3010068
S1134060E3E3010095280100A7280100E7E301002C
S1134070EBE30100EFE30100F3E30100F7E30100E8
S1134080FBE30100FFE3010003E4010007E4010096
S11340900BE401000FE4010013E4010017E4010044
S11340A01BE401001FE4010023E4010027E40100F4
S11340B02BE401002FE4010033E4010037E40100A4
S11340C03BE401003FE401002D29010031290100F6
S11340D043E4010047E401004BE401004FE4010024
S11340E053E4010057E401005BE401005FE40100D4
S11340F063E4010067E401006BE401006FE4010084
S113410002060300000000000000000000000000A0
S1134110809A45418E418F804545454949498E8F56
S11341209092924F994F555559999A9B9C9D9E9F59
S113413041494F55A5A5A6A7A8A9AAABACADAEAF5A
S1134140B0B1B2B3B4B5B6B7B8B9BABBBCBDBEBFF3
S1134150C0C1C2C3C4C5C6C7C8C9CACBCCCDCECFE3
S1134160D0D1D2D3D4D5D6D7D8D9DADBDCDDDEDFD3
S1134170E0E1E2E3E4E5E6E7E8E9EAEBECEDEEEFC3
S1134180F0F1F2F3F4F5F6F7F8F9FAFBFCFDFEFFB3
S113419091F000000DF2000019F3000099F3000003
S11341A0A5F3000025EE000041F40000D1F4000066
S11341B0A1EE0000401800FEFEFE0000000000001A
S11341C00000000000FEFEFE060606060606060CBB
S11341D00C1C38F0E0C000F0F8FC1C0E06060606C5
S11341E006060E0C0000C0E0F0381C0C0E06060695
S11341F00606060C0C0000FFFFFF1C1C1C1C1C1CEC
S11342001C1C1C1C00DDDDDD0000000000000000A3
S113421000000080FFFF7F0103070F0E1E1C3C38C7
S113422078F0E0C080FEFFFF010000000000000005
S1134230000000000000007F7F7F000000000000FD
S113424000000000007F7F7F60606060606060301D
S113425030181C0F07030018303060606060606025
S113426070383F1F0F00030F1F3C383070606060D0
S113427060606030300000000608000000000000AC
S11342800000002F000000000700070000147F1446
S11342907F1400242A7F2A12002313086462003644
S11342A04955225000000503000000001C22410073
S11342B0000041221C000014083E08140008083EB7
S11342C00808000000A060000008080808080000B2
S11342D060600000002010080402003E5149453E81
S11342E00000427F4000004261514946002141459F
S11342F04B31001814127F10002745454539003C06
S11343004A494930000171090503003649494936D3
S113431000064949291E00003636000000005636C2
S113432000000008142241000014141414140000A6
S11343304122140800020151090600324959513E34
S1134340007C1211127C007F49494936003E4141EC
S11343504122007F4141221C007F49494941007F9D
S113436009090901003E4149497A007F0808087F8C
S11343700000417F4100002040413F01007F0814BC
S11343802241007F40404040007F020C027F007FBA
S11343900408107F003E4141413E007F090909069F
S11343A0003E4151215E007F0919294600464949D2
S11343B049310001017F0101003F4040403F001F9F
S11343C02040201F003F4038403F0063140814631E
S11343D000070870080700615149454300007F4108
S11343E0410000552A552A55000041417F00000430
S11343F00201020400404040404000000102040069
S1134400002054545478007F4844443800384444CD
S1134410442000384444487F003854545418000859
S11344207E0901020018A4A4A47C007F0804047877
S11344300000447D4000004080847D00007F1028FF
S113444044000000417F4000007C04180478007C94
S11344500804047800384444443800FC2424241814
S11344600018242418FC007C080404080048545450
S1134470542000043F444020003C4040207C001C69
S11344802040201C003C4030403C0044281028447C
S1134490001CA0A0A07C004464544C4414141414C4
S11344A014140000081000000000000000000000C8
S11344B0000000000000000000F800000000000000
S11344C000333000000000100C06100C0600000041
S11344D000000000000040C07840C0784000043F65
S11344E004043F040400007088FC08300000001835
S11344F020FF211E0000F008F000E0180000002159
S11345001C031E211E0000F00888700000001E21FC
S113451023241927211010160E00000000000000AB
S1134520000000000000000000E018040200000089
S113453000071820400000020418E00000000040BA
S1134540201807000000404080F080404000020234
S1134550010F01020200000000F000000000010150
S1134560011F01010100000000000000000080B0F4
S113457070000000000000000000000000000001C6
S113458001010101010100000000000000000030F1
S1134590300000000000000000008060180400608B
S11345A018060100000000E010080810E000000FE9
S11345B0102020100F00001010F800000000002050
S11345C0203F202000000070080808887000003098
S11345D02824222130000030088888483000001840
S11345E0202020110E000000C02010F80000000759
S11345F00424243F240000F80888880808000019CF
S1134600212020110E0000E0108888180000000FFF
S1134610112020110E0000380808C83808000000D6
S1134620003F000000000070880808887000001C2B
S1134630222121221C0000E010080810E0000000E4
S1134640312222110F00000000C0C0000000000051
S11346500030300000000000008000000000000076
S1134660806000000000000080402010080000016D
S11346700204081020004040404040404000040430
S113468004040404040000081020408000000020FA
S1134690100804020100007048080808F000000037
S11346A0003036010000C030C828E810E0000718C8
S11346B0272423140B000000C038E0000000203C35
S11346C023020227382008F8888888700000203FD9
S11346D0202020110E00C0300808080838000718F0
S11346E020202010080008F808080810E000203FE7
S11346F0202020100F0008F88888E8081000203FC8
S113470020202320180008F88888E8081000203F9B
S1134710200003000000C030080808380000071813
S11347202020221E020008F808000008F808203F94
S1134730210101213F20000808F80808000000209A
S1134740203F2020000000000808F8080800C0806E
S113475080807F00000008F888C028180800203FE7
S113476020012638200008F8080000000000203F3F
S113477020202020300008F8F800F8F80800203F36
S1134780003F003F200008F830C00008F808203F30
S1134790200007183F00E01008080810E0000F1080
S11347A0202020100F0008F808080808F000203F17
S11347B0210101010000E01008080810E0000F18B2
S11347C0242438504F0008F8888888887000203FD7
S11347D02000030C302000708808080838000038D6
S11347E0202121221C00180808F8080818000000DD
S11347F0203F2000000008F808000008F808001F07
S1134800202020201F000878880000C838080000F5
S113481007380E010000F80800F80008F800033C0F
S11348200700073C030008186880806818082030D7
S11348302C03032C30200838C800C83808000000B6
S1134840203F2000000010080808C838080020385D
S1134850262120201800000000FE020202000000B1
S1134860007F40404000000C30C000000000000009
S113487000010638C00000020202FE0000000040F1
S113488040407F0000000000040202020400000017
S11348900000000000000000000000000000808014
S11348A080808080808000020204000000000000FC
S11348B000000000000000008080808000000019DB
S11348C0242222223F2008F8008080000000003FBC
S11348D0112020110E000000008080800000000ED6
S11348E0112020201100000000808088F800000EB4
S11348F0112020103F200000808080800000001FD5
S1134900222222221300008080F088888818002048
S1134910203F202000000000808080808000006B09
S113492094949493600008F8008080800000203FF5
S1134930210000203F200080989800000000002003
S1134940203F20200000000000809898000000C054
S11349508080807F000008F8000080808000203F75
S113496024022D302000000808F800000000002078
S1134970203F202000008080808080808000203FB5
S113498020003F20003F8080008080800000203F86
S1134990210000203F200000808080800000001F54
S11349A0202020201F00808000808000000080FFE5
S11349B0A12020110E000000008080808000000EE5
S11349C0112020A0FF808080800080808000202033
S11349D03F2120000100000080808080800000339F
S11349E0242424241900008080E08080000000003A
S11349F0001F202000008080000000808000001F35
S1134A00202020103F2080808000008080800001D2
S1134A100E300806010080800080008080800F3006
S1134A200C030C300F000080800080808000002088
S1134A30312E0E31200080808000008080808081B3
S1134A408E70180601000080808080808000002124
S1134A50302C2221300000000000807C0202000083
S1134A600000003F404000000000FF000000000084
S1134A700000FF0000000002027C800000000040F3
S1134A80403F00000000000601010202040400008F
S1134A900000000000000000080808183F7F3F18CD
S1134AA0080000001008FFFF01050D1D3D7D3D1DA0
S1134AB00D050101FFFF00001008FFFF010111397E
S1134AC055111111111F0101FFFF0000090800FF1A
S1134AD0017D55555501FF00080800787E79797EDF
S1134AE07800000008080000FE7C38100000000078
S1134AF0080800041C9E7C1E1C0400000808008199
S1134B00FF8919E6800000001008FFFF0101011170
S1134B10397DFF0101010101FFFF00000808FF01C9
S1134B204995A54901FF00000808FF013D41413DA9
S1134B3001FF00000408FF818100000004080081D7
S1134B4081FF000004087F3E1C0800000408081CC4
S1134B503E7F0000060008007842000008001000B4
S1134B60A444000008000800984A0000100008004F
S1134B70A44A000010000800B84A00000900080018
S1134B80CC4A000008000800D84A000008000800C9
S1134B90E44A000008000800F04A00000800080089
S1134BA0FC4A000010000800084B00000800080040
S1134BB01C4B000008000800284B000004000800FB
S1134BC0344B0000040008003C4B000004000800C3
S1134BD0444B0000040008004C4B00004000180047
S1134BE0B4410000000000000000000000000000CC
S1134BF001000000104D0000184D000002000000EC
S1134C00104D0000204D000003000000104D000076
S1134C102C4D000004000000104D00003C4D00002D
S1134C2005000000104D0000484D00000600000083
S1134C30104D0000504D000007000000104D000012
S1134C40584D000008000000104D0000604D0000A9
S1134C5009000000104D0000684D00000A0000002B
S1134C60104D0000704D00000B000000104D0000BE
S1134C70744D00000C000000104D00007C4D00003D
S1134C800D00000000000000000000000E00000005
S1134C90104D0000984D00000F000000104D000062
S1134CA0A84D000010000000104D0000BC4D000095
S1134CB011000000104D0000CC4D00001200000057
S1134CC0104D0000DC4D000013000000104D0000EA
S1134CD0EC4D000014000000104D0000F44D0000E5
S1134CE015000000104D0000FC4D000016000000EF
S1134CF0044E00000C4E000017000000104D000090
S1134D00144E000018000000104D0000204E00005A
S1134D104E554C4C00000000484453430000000032
S1134D2050726F6772616D6D657200004D6F6465DE
S1134D302073657474696E670000000046696C65D1
S1134D402062726F7773650041626F7574000000B2
S1134D5053454C4543540000454E54455200000011
S1134D6045584954000000005541525400000000C9
S1134D705357440053544152540000005445535473
S1134D8061736463666731323334353637383930AA
S1134D9031323334353631004E6F2076616C6964BC
S1134DA020636F756E740000706C732C20666F72D4
S1134DB06D61742055206469736B0000496E69202D
S1134DC066696C65206572726F7200004C6F6720B3
S1134DD066696C65206572726F72000046696C6565
S1134DE0206E6F7420666F756E640000202020466C
S1134DF061696C005375636365737300202E2E2EF6
S1134E002E2E2E006E756C6C0000000050726F74B4
S1134E10656374005265616420466C6173680000C8
S1134E20577269746520466C617368005B20204981
S1134E304E464F5D2025732C25643A200A4E6F742C
S1134E406963653A546865206C6F672066696C65B0
S1134E5020686173206265656E20666C7573686591
S1134E6064206361757365207468652073746F7260
S1134E706167652069732066756C6C2E0A0D0A00E3
S1134E80E147010025480100614701008547010011
S1134E90EB4401006B450100C1470100A347010039
S1134EA0E34501006F6C6564000000000000000031
S1134EB000000C008000280000000000000000003A
S1134EC000000000000000000000000000000000DE
S1134ED000000000000000000100000000000000CD
S1134EE000000000000000000000000000000C00B2
S1134EF08000280000000000000000000000000006
S1134F00000000000000000000000000000000009D
S1134F10244F00000000000000000000000000001A
S1134F2000000000040305190000000000000C004C
S1134F3080002800000000000000000000000000C5
S1134F40000000000000000000000000000000005D
S1134F50A088010000000000000000000000000024
S1134F60000000000000000000000C008000280089
S1134F70000000000000000000000000000000002D
S1134F80000000000000000000000000A04F00002E
S1134F90000000000000000000000000000000000D
S1134FA0181719000000000000000C008000280001
S1134FB0E04F0000000000000000000000000000BE
S1134FC000000000000000000000000000000000DD
S1134FD001000000000000000000000000000000CC
S1134FE00000000164000000000000000000000058
S1134FF05B2020494E464F5D2025732C25643A20C2
S11350002D2D2D2D737563636565733A25642065B5
S113501072723A25642D2D2D2D0D0A005B2020453A
S113502052524F525D2025732C25643A202D2D2D8C
S11350302D737563636565733A2564206572723AEE
S113504025642D2D2D2D0D0A000000005B20204924
S11350504E464F5D2025732C25643A202D2D2D2D91
S1135060737563636565733A2564206572723A25C6
S1135070642D2D2D2D0D0A005B20204552524F52D8
S11350805D2025732C25643A202D2D2D2D737563F9
S1135090636565733A2564206572723A25642D2D23
S11350A02D2D0D0A000000005B20204552524F5266
S11350B05D2025732C25643A2075617274436D64F8
S11350C0446F776E6C6F6164206661696C65642EF1
S11350D0656E526574203D2025640D0A00000000B1
S11350E05B20204552524F525D2025732C25643A93
S11350F0207561727452616D636F6465457261738A
S113510065416C6C0D0A00005B20204552524F52E1
S11351105D2025732C25643A2075617274436D6497
S11351205365744261756472617465206661696C6B
S113513065642E656E526574203D2025640D0A0059
S11351405B20204552524F525D2025732C25643A32
S11351502075617274436D64536574426175647241
S11351606174652E753332426175645261746520D1
S11351703D2025780D0A00005B20204552524F52F5
S11351805D2025732C25643A2075617274436D6427
S113519053657442617564726174652E7538426139
S11351A075647261746552657472794D756C203DD5
S11351B02025780D0A0000005B20204552524F52F2
S11351C05D2025732C25643A2072656C65617365D6
S11351D02073656375726974790D0A005B20204938
S11351E04E464F5D2025732C25643A206368656321
S11351F06B20626C616E6B2066696E6973686564AE
S11352002E0D0A005B20204552524F525D2025731B
S11352102C25643A20416464726573733A307825AE
S113522058206973206E6F6E2D626C616E6B2E0D4B
S11352300A0000005B2020494E464F5D2025732C58
S113524025643A20636865636B73756D20737563B9
S11352506365656465642E0D0A0000005B202049C7
S11352604E464F5D2025732C25643A2063686563A0
S11352706B20626C616E6B2066696E69736865642D
S11352802E0D0A005B20204552524F525D2025739B
S11352902C25643A20416464726573733A3078252E
S11352A058206973206E6F6E2D626C616E6B2E0DCB
S11352B00A0000005B2020494E464F5D2025732CD8
S11352C025643A20636865636B73756D2073756339
S11352D06365656465642E0D0A0000005B2020454B
S11352E052524F525D2025732C25643A2063686521
S11352F0636B73756D206661696C65642E0D0A00BD
S11353005B20204552524F525D2025732C25643A70
S113531020636865636B73756D20636F6D6D616E7B
S113532064206661696C65642E0D0A005573654ED0
S11353306F6E654775694170700000005461726753
S11353406574506F77657200414553456E63727999
S1135350707400004D4355456E637279707400009B
S11353605265736574000000437573746F6D697AD8
S11353706564000057726974654C6F636B000000CC
S11353805061676545726173650000005061726128
S11353906D310000506172616D32000050617261C4
S11353A06D33000046696C654F6666736574000072
S11353B046696C654C656E67746800004368656394
S11353C06B53756D0000000056616C69644269742A
S11353D0000000004C6F636B436F6E6669670000EA
S11353E04C6F636B416472004C6576656C00000021
S11353F04E6F4C6F670000004572726F72000000C0
S1135400496E666F000000005761726E696E670036
S1135410446562756700000050540000DDF0000030
S11354205854000001F100006054000027F100000E
S11354306854000059F10000705400008DF1000020
S11354407C540000C9F100008C540000EBF1000012
S11354504E616D650000000053657269657300005C
S113546054797065000000005874616C00000000FD
S113547042617564526174650000000052616D43BD
S11354806F64654261736541646472005061636B6B
S113549065744C656E67746800000000C4540000B5
S11354A061F20000D454000081F20000E4540000D2
S11354B0A3F20000F0540000C5F200000055000003
S11354C0EBF200004D61696E53746172744164645F
S11354D0720000004D6375466C61736853697A65A8
S11354E0000000005061676553697A6500000000A0
S11354F04D61696E46696C654E616D650000000022
S11355004D61696E46696C65436865636B73756D5F
S1135510000000003C55000075EE000044550000FA
S113552075EE00005055000075EE00005C5500005B
S113553075EE00006855000075EE00005365674E77
S1135540756D000057726974654164720000000053
S113555046696C654F6666736574000046696C65E0
S11355604C656E6774680000436865636B53756DC2
S113557000000000C700FC00E900E200E400E000D5
S1135580E500E700EA00EB00E800EF00EE00EC00C5
S1135590C400C500C900E600C600F400F600F2002D
S11355A0FB00F900FF00D600DC00A200A300A50068
S11355B0A7209201E100ED00F300FA00F100D10010
S11355C0AA00BA00BF001023AC00BD00BC00A100BB
S11355D0AB00BB0091259225932502252425612546
S11355E06225562555256325512557255D255C25BE
S11355F05B251025142534252C251C2500253C2548
S11356005E255F255A255425692566256025502584
S11356106C25672568256425652559255825522557
S113562053256B256A2518250C25882584258C256A
S113563090258025B103DF009303C003A303C303B4
S1135640B500C403A6039803A903B4031E22C6032A
S1135650B50329226122B10065226422202321237B
S1135660F7004822B0001922B7001A227F20B200A6
S1135670A025A00061001A03E0001703F800070347
S1135680FF000100780100013001320106013901F7
S113569010014A012E017901060180014D004302E7
S11356A081018201820184018401860187018701CD
S11356B089018A018B018B018D018E018F0190017B
S11356C09101910193019401F601960197019801CA
S11356D098013D029B019C019D0120029F01A001B4
S11356E0A001A201A201A401A401A601A701A7018E
S11356F0A901AA01AB01AC01AC01AE01AF01AF013C
S1135700B101B201B301B301B501B501B701B801EB
S1135710B801BA01BB01BC01BC01BE01F701C00163
S1135720C101C201C301C401C501C401C701C8014B
S1135730C701CA01CB01CA01CD011001DD0101007D
S11357408E01DE011201F3010300F101F401F40101
S1135750F8012801220212013A020900652C3B02D9
S11357603B023D02662C3F024002410241024602D6
S11357700A015302400081018601550289018A0110
S113578058028F015A0290015C025D025E025F02C0
S11357909301610262029401640265026602670277
S11357A0970196016A02622C6C026D026E029C01E2
S11357B0700271029D01730274029F0176027702E6
S11357C0780279027A027B027C02642C7E027F02D8
S11357D0A60181028202A90184028502860287024F
S11357E0AE014402B101B20145028D028E028F0264
S11357F090029102B7017B030300FD03FE03FF0344
S1135800AC0304008603880389038A03B1031103EC
S1135810C2030200A303A303C4030803CC030300CD
S11358208C038E038F03D8031801F2030A00F903D3
S1135830F303F403F503F603F703F703F903FA0399
S1135840FA033004200350041007600422018A0480
S11358503601C1040E01CF040100C004D004440188
S113586061052604000000007D1D0100632C001E5C
S11358709601A01E5A01001F0806101F0606201FCD
S11358800806301F0806401F0606511F0700591F4F
S1135890521F5B1F541F5D1F561F5F1F601F0806AA
S11358A0701F0E00BA1FBB1FC81FC91FCA1FCB1F02
S11358B0DA1FDB1FF81FF91FEA1FEB1FFA1FFB1F7C
S11358C0801F0806901F0806A01F0806B01F0400CA
S11358D0B81FB91FB21FBC1FCC1F0100C31FD01FAC
S11358E00206E01F0206E51F0100EC1FF21F010083
S11358F0FC1F4E210100322170211002842101007D
S11359008321D0241A05302C2F04602C0201672C2B
S11359100601752C0201802C6401002D260841FF2C
S11359201A03000005010902A1010901A1000509EA
S113593019012903150025019503750181027505D7
S11359409501810105010930093109381581257F47
S1135950750895038106C0C048554144412053450C
S11359604D49434F4E445543544F5220434F2E000C
S1135970555342204D6173732053746F7261676590
S113598000000000303030310000000000000268E8
S1135990531C03601170704700002115110E0D0C8B
S11359A00B0B0A0A09090909090808080808080864
S11359B00707070707070707070707070700000088
S11359C03031323334353637383961626364656671
S11359D06768696A6B6C6D6E6F70717273747576DB
S11359E07778797A00000000430030B4002513E092
S11359F050F8042BD30744BFA9F101039A18091FD7
S1135A00042942F8045BFAD213468C0744BF15807C
S1135A109B1CC90748BF1D7050F8041B0029E7D11F
S1135A2030BC7047002100E00121002906D1DFF8D5
S1135A3044140A689042F7D1081D7047002070474B
S1135A407CB505460C460026002D00F07F81002C15
S1135A5000F07C81FFF7E6FF002800F07781012148
S1135A600DF1030000F02EFA01210DF1020000F007
S1135A7029FA01210DF1010000F024FA0121684600
S1135A8000F020FA05F124010A8B4FF6FE70024063
S1135A900A833046687028706872606808726068AB
S1135AA0000A48726068000C08716068000E487152
S1135AB0207A072800F24A81DFE810F008000F007E
S1135AC0180021002A0033003C0045009DF8010025
S1135AD000F01F008DF801003BE09DF8010000F08C
S1135AE01F0040F020008DF8010032E09DF8010015
S1135AF000F01F0040F040008DF8010029E09DF8FF
S1135B00010000F01F0040F060008DF8010020E06B
S1135B109DF8010000F01F0040F080008DF80100A6
S1135B2017E09DF8010000F01F0040F0A0008DF880
S1135B3001000EE09DF8010000F01F0040F0C000DD
S1135B408DF8010005E09DF8010040F0E0008DF8BB
S1135B500100607A0246202A80F0F8809DF8012036
S1135B6060F304028DF80120104685F83100A07A14
S1135B70072800F2EB80DFE800F0040B141D262F49
S1135B8038419DF8000000F01F008DF800003BE054
S1135B909DF8000000F01F0040F020008DF8000088
S1135BA032E09DF8000000F01F0040F040008DF846
S1135BB0000029E09DF8000000F01F0040F06000A4
S1135BC08DF8000020E09DF8000000F01F0040F078
S1135BD080008DF8000017E09DF8000000F01F0021
S1135BE040F0A0008DF800000EE09DF8000000F0E9
S1135BF01F0040F0C0008DF8000005E09DF8000093
S1135C0040F0E0008DF80000E07A0246202A80F09F
S1135C109D809DF8002060F304028DF8002010465A
S1135C2085F83000207B08742078012801D10120F8
S1135C3000E030462A7860F386122A70088B00F060
S1135C40FF000883088B627B40EA022008832069F6
S1135C50002837D04068287520694068000A6875B4
S1135C6020694068000C287420694068000E68743C
S1135C7020690078002802D0012807D066E09DF84A
S1135C80030000F0FB008DF8030005E09DF803001D
S1135C9040F004008DF803002069007A012808D13F
S1135CA09DF8030040F002008DF803002069407A5B
S1135CB048759DF8030068722069807A0246102AAC
S1135CC044D228726069002834D09DF8020000F0A4
S1135CD0F7008DF8020060690078012801D10120E5
S1135CE000E030469DF8022060F382028DF8022025
S1135CF060694078012808D19DF8020040F0020054
S1135D008DF802006069807808759DF80200687655
S1135D106069C0782876606902791346082B15D229
S1135D2040790346202B11D202F0070242EAC00256
S1135D3085F82020A069002819D0008880088001F7
S1135D404880A069C2781346202B01D3042076BD75
S1135D500379012B00D140268078012801D146F037
S1135D60200602F01F02164346F080060E70002043
S1135D7076BD10B5040001D1042010BDFFF752FE1A
S1135D80002801D1042010BD04F124000021018366
S1135D906170217061722172217561752174617461
S1135DA061762176E16184F82010418001700172EE
S1135DB04172017141714173017301834175017530
S1135DC0084610BD02460020042916D8DFE801F079
S1135DD003060A0E12005078C00970475078C0F3C9
S1135DE080107047507AC0F340107047507EC0F363
S1135DF0401070475078C0F340107047002820D0FE
S1135E0004291ED8DFE801F003090E1318004178B5
S1135E1001F07F01417000207047417801F0BF011B
S1135E204170F8E7417A01F0DF014172F3E7417E06
S1135E3001F0DF014176EEE7417801F0DF014170C6
S1135E40E9E7042070470C49002801D10420704779
S1135E50828F42F00102828700E0491E002906D0A9
S1135E60828FC2F34002002AF7D000207047092035
S1135E707047000000C0FF1F40420F00002801D1FE
S1135E8004207047417A41F00101417200207047BB
S1135E90002802D14FF0FF307047C068704701F40A
S1135EA08051481E8041C00F70470078C0F38010B5
S1135EB0002802D1090D08467047090CC1F30B01F3
S1135EC00846704702E0002200F8012B0A46511EE2
S1135ED0002AF8D170470000EFF3108072B67047C3
S1135EE07047000080F3108870477047F0B4ADF538
S1135EF0006D00200121FF2800F3E5800DF580628C
S1135F0042F820106A4642F821000A0601D4002211
S1135F1000E01B2281EA4101514001F0FF01401CD5
S1135F20E9E7002206E0DFF8802B42F820100A0699
S1135F30F7D51B2282EA410101F0FF01401CC4E0B5
S1135F400DF580636C4654F82040644203EB8403EF
S1135F50D3F8FC331C46E41144EA430404F0FF0480
S1135F6063402546ED1145EA440505F0FF056B4005
S1135F702C46E41144EA450404F0FF042546ED11DF
S1135F8045EA440505F0FF056C4084F06304634072
S1135F900B54D054401CFF28D2DD0023EC462FE0E4
S1135FA0002010E000260028FAD00B9F5CF82000A7
S1135FB0C719FF2097FBF0F0C0EB00203F1A0DF546
S1135FC0806050F8270084EA052484EA064484EAC1
S1135FD00064DFF8D80A40F823404FEA3460DFF861
S1135FE0D04A44F823004FEA3060DFF8C84A44F846
S1135FF023004FEA3060DFF8C04A44F823005B1CFA
S1136000FF2B70DCC85C040601D51B2400E00024CF
S113601084EA400404F0FF0484EA002585EA00458C
S1136020604085EA0065DFF8940A40F823504FEA9F
S11360303560DFF88C4A44F823004FEA3060DFF81B
S1136040844A44F823004FEA3060DFF87C4A44F87D
S11360502300D05C00280FD00E9C6D4655F82050CC
S11360602C19FF2594FBF5F5C5EB0525641B0DF5EF
S1136070806555F8244000E0002400280FD0099DD5
S11360806E4656F820607519FF2695FBF6F6C6EBAA
S11360900626AD1B0DF5806656F8255000E0002558
S11360A000283FF47FAF0D9E6F4657F82070BE194D
S11360B0FF2796FBF7F7C7EB0727F61B0DF580675D
S11360C057F826606FE7002001210A28FFF62BAF5E
S11360D0DFF8F81963200870DFF8F429002082F84B
S11360E06300012057E70DF5006DF0BC7047F8B56B
S11360F005460E461746DFF8B049A06A002803D1CA
S1136100FFF7F4FE0120A0623846802805D0C0289D
S11361100AD0B0F5807F0AD00CE00A20286005F18F
S113612008026A60002019E00C202860F7E70E20BE
S11361302860F4E76FF01F00F2BD06EB80010B78D6
S113614091F801C043EA0C2391F802C043EA0C43DE
S1136150C97843EA016342F82030401CB0EB571F72
S1136160EBD328680A2804D00C282ED00E285DD042
S1136170A5E000200A2880F0A280D368DFF84C193B
S1136180156854F820607540C3F307268E5D75408A
S1136190C3F307468E5D85EA06251E46360E8E5DE0
S11361A085EA064503F0FF03C95C85EA01651561CC
S11361B05168136959405161936859409161D3689A
S11361C05940D161401C1032D4E70020082876D20F
S11361D05369DFF8F818156854F820607540C3F364
S11361E007268E5D7540C3F307468E5D85EA062556
S11361F01E46360E8E5D85EA064503F0FF03C95C34
S113620085EA01659561516893695940D161936844
S113621059401162D36859405162136959409162DF
S113622053695940D162401C1832CFE70023072B31
S113623045D2D169DFF89408156854F82360754095
S1136240C1F30726865D7540C1F30746865D85EA7E
S113625006250E46360E865D85EA064501F0FF01E9
S1136260415C85EA016515625168156A69405162AD
S1136270956869409162D5686940D162156901F0F9
S1136280FF06865D7540C1F30726865D85EA06250F
S1136290C1F30746865D85EA0645090E405C85EA3A
S11362A0006515635069116B48405063916948401B
S11362B09063D1694840D0635B1C2032B7E700206B
S11362C0F2BDF8B5C6B004461046802805D0C028F3
S11362D00ED0B0F5807F0ED010E00A20206004F1CB
S11362E0080060606846FFF702FF002809D053E009
S11362F00C202060F3E70E202060F0E76FF01F0011
S11363004AE00198009900EB01100168A16041681E
S1136310E16081682161C168616104F11803246846
S1136320641EA0F11005DFF8A41728E02868DFF840
S11363307C2700F0FF07CF5D52F82720DFF8707745
S1136340C0F3072C11F80CC057F82C707A40DFF812
S11363506477C0F3074C11F80CC057F82C707A40DE
S1136360DFF85477000E085C57F82000424043F8E9
S1136370042B761C2D1D042ED8DB641E203D002C1E
S113638001DD0026F7E72868186068685860A86887
S11363909860E868D860002047B0F0BD2DE9F84F58
S11363A084B043681478557844EA0524957844EA1F
S11363B00544D57844EA056453F8045B6C401579C8
S11363C0567945EA0625967945EA0645D67945EA99
S11363D0066553F8046B7540177A567A47EA062720
S11363E0967A47EA0647D67A47EA066753F8046B73
S11363F07740167B92F80DC046EA0C2692F80EC040
S113640046EA0C46D27B46EA026653F8042B564011
S1136410D0F800E04FEA6E0EAEF1010E002940F014
S11364209081CDF804E0DFF88886BDE053F804CB12
S1136430DDF80C9089EA0C0CC6F3072958F829906A
S113644089EA0C0CC7F307495EF8299089EA0C0C19
S1136450DDF8089089EA0C0C53F8049BDDF800A0E1
S113646051F82AA08AEA0909C4F3072A58F82AA08D
S11364708AEA0909C6F3074A5EF82AA08AEA0909E2
S1136480BA464FEA1A6A50F82AA08AEA090953F868
S113649004AB07F0FF0B51F82BB08BEA0A0AC5F3E3
S11364A0072B58F82BB08BEA0A0AC4F307445EF8AA
S11364B0244084EA0A0A3446240E50F8244084EA2C
S11364C00A0A53F804BB06F0FF0651F8264084EA92
S11364D00B0BC7F3072458F8244084EA0B0BC5F3CD
S11364E007445EF8244084EA0B0B50F8222082EA29
S11364F00B0B53F8044B0CF0FF0251F822205440CC
S1136500CBF3072258F822205440CAF307425EF81E
S1136510222054404A46120E50F82220544053F888
S1136520045B09F0FF0251F822205540CCF3072206
S113653058F822205540CBF307425EF822205540FC
S11365405246120E50F82220554053F8047B0AF0AC
S1136550FF0251F822205740C9F3072258F822209D
S11365605740CCF307425EF8222057405A46120E99
S113657050F82220574053F8046B0BF0FF0B51F8EE
S11365802B104E40CAF3072158F821104E40C9F38E
S113659007415EF821104E404FEA1C6C50F82C0065
S11365A046400198401E0190DFF80C052946090E6B
S11365B050F821100291DFF8F41404F0FF0251F8AE
S11365C0222003922246120E05F0FF0ECDF800E0C1
S11365D0DFF8E0E4DDF804C0BCF1000F3FF726AFBC
S11365E00194D3F800C0039C84EA0C0CC6F307247E
S11365F058F8244084EA0C0CC7F307445EF824409E
S113660084EA0C0C029C84EA0C0CD3F80490009CE1
S113661051F8244084EA0909019CC4F3072458F87A
S1136620244084EA0909C6F307445EF8244084EA56
S113663009093C46240E50F8244084EA0909D3F899
S113664008A007F0FF0451F8244084EA0A0AC5F3BD
S1136650072458F8244084EA0A0A019CC4F3074436
S11366605EF8244084EA0A0A3446240E50F8244092
S113667084EA0A0ADC6806F0FF0651F826104C404A
S1136680C7F3072158F821104C40C5F307415EF8C1
S113669021104C4050F822004440DFF834541A6969
S11366A00CF0FF00285C4240C4F30720285C82EA17
S11366B00022CAF30740285C82EA00424846000EE2
S11366C0285C82EA00625E6909F0FF00285C4640AB
S11366D0CCF30720285C86EA0026C4F30740285C34
S11366E086EA00465046000E285C86EA00669F69EA
S11366F00AF0FF00285C4740C9F30720285C87EABA
S11367000027CCF30740285C87EA00472046000EA8
S1136710285C87EA0067D96904F0FF04285D4140DA
S1136720CAF30720285C81EA0021C9F30740285CEA
S113673081EA00414FEA1C6C15F80C0081EA006103
S113674089E1184622462B463D463446CDF804E0FE
S1136750DD4EDFF86C83B9E050F8041BDDF808C0A7
S11367608CEA0101C3F3072C58F82CC08CEA010110
S1136770C5F3074C5EF82CC08CEA0101DDF800C0BB
S11367808CEA0101009150F8041B57F82BC08CEAE5
S11367900101C5F3072558F825506940C4F307459E
S11367A05EF82550694015462D0E56F8255069406F
S11367B050F804CB57F8295085EA0C0CC4F307258C
S11367C058F8255085EA0C0CC2F307455EF82550AD
S11367D085EA0C0C1D462D0E56F8255085EA0C0C46
S11367E050F8049B04F0FF0457F8244084EA090994
S11367F0C2F3072258F8222082EA0909C3F30742A8
S11368005EF8222082EA090956F82A2082EA090958
S113681050F8042B009B03F0FF0357F823305A4031
S1136820C1F3072358F823305A40CCF307435EF8EA
S113683023305A404B461B0E56F823305A4050F82A
S1136840043B01F0FF0457F824406340CCF30724D1
S113685058F824406340C9F307445EF82440634079
S1136860009C240E56F82440634050F8045B0CF05E
S1136870FF0457F824406540C9F3072458F824401E
S11368806540009CC4F307445EF8244065400C4610
S1136890240E56F82440654050F8044B09F0FF09D3
S11368A057F829707C40009FC7F3072758F82770D2
S11368B07C40C1F307415EF821104C404FEA1C6C48
S11368C056F82C104C400199491E01912146090E9D
S11368D056F821100091794F02F0FF0157F821106A
S11368E00291AA464FEA1A6A05F0FF0903F0FF0B6A
S11368F0DFF8D0E1019900293FF72EAF0168DDF8F8
S113690008C08CEA0101C3F3072C58F82CC08CEAA8
S11369100101C5F3074C5EF82CC08CEA0101DDF8D7
S113692000C08CEA01010091D0F804C057F82B1084
S113693081EA0C0CC5F3072158F8211081EA0C0CEC
S1136940C4F307415EF8211081EA0C0C1146090ECC
S113695056F8211081EA0C0C856857F829104D402F
S1136960C4F3072158F821104D40C2F307415EF8E3
S113697021104D401946090E56F821104D40D0F80B
S11369800C9004F0FF0457F8241081EA0909C2F3BB
S1136990072158F8211081EA0909C3F307415EF879
S11369A0211081EA090956F82A1081EA0909474B9E
S11369B00269009901F0FF01595C4A40CCF30721B8
S11369C0595C82EA0122C5F30741595C82EA01421B
S11369D04946090E595C82EA016246690CF0FF01DE
S11369E0595C4E40C5F30721595C86EA0126C9F378
S11369F00741595C86EA01460099090E595C86EA0A
S1136A000166876905F0FF01595C4F40C9F307210E
S1136A10595C87EA01270099C1F30741595C87EA69
S1136A2001476146090E595C87EA0167C16909F0AB
S1136A30FF0913F8090041400098C0F30720185CCF
S1136A4081EA0021CCF30740185C81EA00412D0E55
S1136A50585D81EA00610498027013461B0A437072
S1136A6013461B0C8370120EC27006713246120A52
S1136A7042713246120C8271360EC67107723A4662
S1136A80120A42723A46120C82723F0EC7720173A6
S1136A900A46120A42730A46120C8273090EC17323
S1136AA0002005B0BDE8F08F801F0020ACFBFF1F65
S1136AB0ACFFFF1FAC030020AC070020ACEBFF1FB2
S1136AC0ACEFFF1FACF3FF1FACF7FF1F6C180020E7
S1136AD06C1900202DE9F84384B080460D46144615
S1136AE0994614F00F0F02D06FF021003EE00C9E87
S1136AF00D9F002D35D1002C0FE0395C19F80020D2
S1136B0051403954401C1028F7DB1022694648468E
S1136B1000F06CF810361037103C26D010223146A5
S1136B20684600F063F83B46324629464046FFF784
S1136B3035FC0020E7E7315C19F800205140395456
S1136B40401C1028F7DB3B463A4629464046FFF7EF
S1136B5025FC10223946484600F048F81036103714
S1136B60103C002C01D00020EBE7002005B0BDE86C
S1136B70F083F0B40246106895681318506803EB6C
S1136B805004C0071DD54D441BE013F8017B05F8E4
S1136B90017B491EF9D1A0B1B60813F8011B06F018
S1136BA00306032E08BF13F8016B01EB06214942CB
S1136BB0801C294405D011F8016B05F8016B401EB7
S1136BC0F9D1A3420ED013F8016B16F0030104BFF0
S1136BD013F8011BC91C30090F28DAD113F8010B73
S1136BE00F30D6E7F0BC02F10C00704762B38B079C
S1136BF008D0521E11F8013B00F8013B00F024803C
S1136C008B07F6D1830740F0208000BF103A07D3EA
S1136C1030B4B1E83810103AA0E83810F9D230BCDA
S1136C20530724BFB1E80810A0E8081044BF51F886
S1136C30043B40F8043BD20724BF31F8022B20F870
S1136C40022B44BF0B7803707047121F17D35B00ED
S1136C5009D151F8043B20F8023B1B0C121F20F809
S1136C60023BF6D20BE051F8043B00F8013B1B0A4F
S1136C7020F8023B1B0C121F00F8013BF3D238BF73
S1136C80121D521E24BF11F8013B00F8013BF8D835
S1136C9070470000DFF800F09BCAFF1FDFF800F028
S1136CA0E3CAFF1F70B505467D4CA06804F10801D6
S1136CB0884205D0FFF710F9A168A1F1080604E0A5
S1136CC0002070BDB168A1F10806A64206D0316863
S1136CD0A942F7D1FFF706F9304670BDFFF702F974
S1136CE0002070BD70B504460D46264604E03046CB
S1136CF0FFF7D0FF06F5005628198642F7D370BD7A
S1136D0002460B189A4205D212F8013BFF2BF8D029
S1136D10002070470120704710B403460478A52C66
S1136D2005D00844401CD418A042F7D3002010BC5E
S1136D307047F8B504460D4616460027FFF7ECFFEA
S1136D40002807D131462046FFF7DAFF012817D182
S1136D50274615E02844471C6A1C3019874202D292
S1136D603846002102E000270AE0491C914205D27E
S1136D7010F8013BFF2BF8D07819471C9142ECD155
S1136D803846F2BD4648474901604FF4C04141606E
S1136D9000F108018160C160704738B50C461546A2
S1136DA0FFF780FF426829460068FFF7B5FF002817
S1136DB001D1002032BD2A46411C2046FFF716FFB0
S1136DC0284632BD2DE9FC4107460D461646FFF71D
S1136DD069FF8046D8F804203146D8F80000FFF750
S1136DE0A8FF040011D1D8F80410D8F80000FFF768
S1136DF079FFA5208DF80000012269462046FFF79F
S1136E004DFF002811D0002019E0A742F1D0A020A6
S1136E108DF8000001226946701C40422044FFF7AF
S1136E203DFF0028E5D0002009E032462946601CD9
S1136E30FFF734FF002801D0002000E03046BDE811
S1136E40F68180B5FFF72EFF41680068BDE8044075
S1136E5048E7000070B506464FF4A47212A1102052
S1136E6000F02EF804460E4D2868206066602868FD
S1136E70301828606868861B6E60FFF72DF804F1EF
S1136E800801A160E160E9680A68A260E16004F1B8
S1136E9008020B685A600A60BDE87040FFF722B828
S1136EA0082200200020200062616C616E63656628
S1136EB06C6173685F726567697374657200000062
S1136EC080B500F0C7FE09490A68521C0A604B6885
S1136ED0934200D24A6002BD002805D003490A68E3
S1136EE0521E0A6001F092BA70470000C8220020C6
S1136EF081B00021009107E04FF4E1510091009925
S1136F004A1E00920029FAD10146481E0029F3D1F5
S1136F1001B070470346002002E013F8012B10185B
S1136F200A46511E002AF8D180B2704700F5E0707D
S1136F300268914203D343681A44914202D38068A1
S1136F400028F5D17047DFF86C17086890B94FF442
S1136F50805048604FF480324FF0FF30C8600861C1
S1136F600420DFF854378A604861C3F8BC01DFF8B5
S1136F704C0708600120704701F1080313F0070F64
S1136F800EBF0023C3F1080303F007031944D21A08
S1136F908161C26042F001034B60091D4FF0280C6F
S1136FA041F802C0DFF80C271369C36170472DE96B
S1136FB0FC4B074601F1080010F0070F0FBF89468C
S1136FC0C0F1080000F0070001EB000902F108011C
S1136FD011F0070F06D002F10800C0F1080000F01C
S1136FE0070002441546A5EB090009EB0306A0EBD4
S1136FF0030B43F00303C9F80430AE4228BF01F089
S113700007FA2879C10758BF01F002FABBF1100F43
S113701038BF01F0FDF9B869854208D1F9688B449D
S1137020C7F80CB0BE614BF00100706051E17869A3
S113703085420AD1B9688B44C7F808B07E614BF029
S11370400100706046F80BB043E1686800F003018A
S1137050012940F0AC80C008C0000190C0081F287E
S113706039D8AC68D5F80C800090454508BF01F0CC
S1137070CFF9A54208BF01F0CBF968680099C008B0
S1137080C000B0EBC10F18BF01F0C2F9009907F1BD
S1137090280000EBC100844206D039698C42C0F05C
S11370A08180E268AA427DD1A04506D10098396862
S11370B0012383409943396076E0804506D03969DD
S11370C088456FD3D8F80800A8426BD1C4F80C8067
S11370D0C8F8084068E0EC68D5F81880AC420CD0D9
S11370E0A8683969884223D3C268AA4204BFA16848
S11370F0A9421DD1C460A0601CE005F114010C6814
S113710034B905F110010C68A4B101E011460C6812
S113711004F114021068002802BF04F11002106880
S11371200028F3D13869814202D300220A6001E0C9
S113713001F06EF9B8F1000F36D0E96907F59870DF
S113714000EB81000268954208D10460A4B9E869A3
S11371507968012282409143796025E0386980454D
S113716008D3D8F81010A94214BFC8F81440C8F8BE
S1137170104001E001F04CF9B4B139698C4211D3EB
S1137180C4F81880286928B1884226BF2061846128
S113719001F03EF9686938B13969884202D3606107
S11371A0846101E001F034F901996D188B44696838
S11371B04908490069604BF0010070604FEADB0444
S11371C046F80BB01F2C23D807F1280000EBC408A5
S11371D04546BBF1100F38BF01F01AF9386820FAA0
S11371E004F1CA0705D4012101FA04F404433C6004
S11371F007E0D8F80800396988422CBF054601F039
S113720007F9C8F80860EE60B560C6F80C8060E065
S11372105FEA1B2008BF002123D0B0F5803F28BFC0
S11372201F211ED2A0F58072120C02F008029040B9
S1137230A0F58051090C01F004018840A0F58043B9
S11372401B0CC2F10E0203F00203521AD21A984028
S113725002EBD032D01D2BFA00F101F0010101EB59
S11372604201F161002307F59872736102EB81001A
S113727033617A6822FA01F3DC0707D4012303FAA5
S113728001F1114379600660B0611DE002681F29B5
S11372901DBF4908C1F119010BFA01F1594600E07B
S11372A002465068C008C000584516D002F11003C9
S11372B0C80F03EB8003490018680028F0D138692F
S11372C0834204D31E60B261F660B66001E001F04F
S11372D09FF809F10800BDE8F68B396990688A4285
S11372E028BF8842F3D3C6609660B060F260002085
S11372F0B061EEE72DE9FE4F04468B46A5692E46A4
S1137300904699463146FFF711FE0268416802EB48
S1137310010AAAF1270111F007000EBF0021C1F1F3
S1137320080101F007010AEB0100A0F12F0706F1A3
S113733010018F4238BF374607F11802002101922D
S11373400091A8F1280259462046FFF715FE07F1DF
S1137350080010F0070F18BF01F05AF81B207860DE
S113736007F1080104F5E07090E80C5081E80C5036
S1137370C0F800B0C0F80480C0F80C908160072207
S11373800198009900E0001D491C00F108035345D1
S11373904260F8D30129D8BF01F03AF8B74200F0AF
S11373A09580BF1B301D321DC15949084900D15178
S11373B047F0010070604FEAD70BF751BBF11F0F84
S11373C021D804EBCB0000F12805A846102F38BFC4
S11373D001F01EF8206820FA0BF1CA0705D4012138
S11373E001FA0BF10843206006E0A868216988428D
S11373F02CBF804601F00CF8AE60C8F80C60C6F8EB
S11374000880F5606FE0380A08BF002123D0B0F58A
S1137410803F28BF1F211ED2A0F58072120C02F0FB
S113742008029040A0F58051090C01F00401884045
S1137430A0F580431B0CC2F10E0203F00203521AA2
S1137440D21A984002EBD032D01D27FA00F101F095
S1137450010101EB420104EB8102002302F5987063
S1137460F16173613361626822FA01F3DB0707D4C7
S1137470012303FA01F1114361600660B0611DE06C
S113748002681F291DBF4908C1F1190107FA01F15A
S1137490394600E002465068C008C000B84216D021
S11374A002F11003C80F03EB800349001868002899
S11374B0F0D12069834204D31E60B261F660B560E6
S11374C011E003B0BDE8F04F00F0A2BF0BE021696A
S11374D090688A4228BF8842F3D3C6609560B06042
S11374E0F2600020B06103B0BDE8F08F2DE9F041F7
S11374F0704F05463868884608B9FFF724FDB96817
S113750001EB08002F30491E20EA010188457DD295
S113751005F5D876B06828B1326889188A4275D2E0
S1137520884273D300F078FF01001CBF0C6811F18E
S1137530010F6BD03068201805F5D872306053689D
S1137540984238BF18467060A86960BB286908B1C2
S1137550814200D22961316174610020F0614FF0F1
S1137560FF303A686A62286205F128020020D2607E
S1137570926002F1080757611761801C10322028BD
S1137580F5D34D48854208BFA4F1280228D055F808
S1137590040CC00805EBC002A2F108000A19121A73
S11375A0283A01461CE005F5E070024600E09268C6
S11375B07AB3136857681F44B942F8D1137B1F0785
S11375C027D4AB691768BB4223D3D2F804C06744FD
S11375D0BB421ED2A444C2F804C0E868A9692218B8
S11375E02846FFF7C9FC1FE08068C0B103689342D6
S11375F0FAD1027B130712D4026801604368E418CD
S1137600446043462846BDE8F041D0E40020BDE88C
S1137610F0812A69914238BF29610A19E5E70023FC
S113762022462846FFF766FEE8688045EED2A0EBC6
S11376300800A969E86001EB0802AA6140F00100B2
S1137640506048F00300486001F10800BDE8F08193
S113765030B4184B1A6882B94FF480525A604FF410
S113766080344FF0FF32DA601A610422124D9C60BC
S11376705A61C5F8BC21114A1A6011F1400F17D2A2
S11376808269AAB1C368283199420BD200F5E0712E
S11376900C68A24203D34D682C44A24202D38968E9
S11376A00029F5D1C16999423CBF4FF0FF32C26154
S11376B000F0A8BE3C210020B41100206859883C89
S11376C02DE9F84F00258946090AC9F1000B08BFC6
S11376D0002323D0B1F5803F28BF1F231ED2A1F57C
S11376E08072120C02F008029140A1F580531B0C29
S11376F003F004039940A1F58044240CC2F10E0266
S113770004F00204D21A121BA14002EBD132D11DA3
S113771029FA01F303F0010303EB4203074607F5DB
S1137720987858F8230030B31F2B0FBF4C465C08E1
S1137730C4F1190409FA04F4AC46594600E06400A3
S11377404268D208D200A2EB09028A4203D2110095
S1137750054600F06981426910304FEAD47B50F845
S11377602B00002A1CBF824294460028E7D18B4696
S11377706046B0BBBDBB012202FA03F35B00584272
S1137780796803430B4000F04E81584203405B1E6E
S1137790180B00F01000C340590901F00801CB4058
S11377A09A0802F00402D3405C0804F002040818AA
S11377B0E3401018C3F3400620183044F3401B186C
S11377C058F823000DE008464168C908C900A1EB38
S11377D0090159453CBF8B46054601690029F2D190
S11377E040690028F0D1002D00F01D81B868A0EB9D
S11377F00900834580F0178139698D42C0F01181F9
S11378006868C008C00009EB0B01884218BF00F08B
S1137810FFFD05EB0906B54280F00381EC68D5F85D
S113782018A0AC420CD0A8683969884223D3C26836
S1137830AA4204BFA168A9421DD1C460A0601CE093
S113784005F114010C6834B905F110010C68A4B1F8
S113785001E011460C6804F114021068002802BF0C
S113786004F1100210680028F3D13869814202D370
S113787000220A6001E000F0CBFDBAF1000F36D01F
S1137880E86908EB800001688D4209D1046020009A
S113789014D1E8697968012282409143796026E035
S11378A03869824508D3DAF81010A94214BFCAF81F
S11378B01440CAF8104001E000F0AAFDBCB13869D8
S11378C0844212D3C4F818A0286930B139698842B7
S11378D026BF2061846100F09BFD686938B1396975
S11378E0884202D36061846101E000F091FDBBF144
S11378F0100F0CD2D94449F00300291D6860281DDB
S113790051F8092042F0010240F8092088E049F0CA
S1137910030068604BF0010070604FEADB0046F83A
S11379200BB01F281DD807EBC00101F128043968EA
S113793021FA00F2D307A34605D4012202FA00F08B
S11379400843386006E0A068396988422CBF834642
S113795000F05EFDA660CBF80C60C6F808B0F460D9
S11379605EE05FEA1B2008BF002123D0B0F5803F12
S113797028BF1F211ED2A0F58072120C02F008024B
S11379809040A0F58051090C01F004018840A0F555
S113799080431B0CC2F10E0203F00203521AD21AE6
S11379A0984002EBD032D01D2BFA00F101F0010116
S11379B001EB4201F16100227261326108EB810046
S11379C07A6822FA01F4E30707D4012404FA01F1E6
S11379D0114379600660B0611DE002681F291DBF74
S11379E04908C1F119010BFA01F1594600E00246B8
S11379F05068C008C000584518D002F11003C80FE1
S1137A0003EB8003490018680028F0D138698342E9
S1137A1004D31E60B261F660B66001E000F0F8FCC9
S1137A2014E100F0F5FC0EE18B46A2E6396990689A
S1137A308A4228BF8842F1D3C6609660B060F26083
S1137A400020B061ECE72DE9F84F064688467168DE
S1137A5048420140491E080B00F01000C1404A0989
S1137A6002F00802D1408B0803F00403D9404D080A
S1137A7005F002051018E9401818C1F3400428184D
S1137A8006F5987A2044E14009185AF8211048680C
S1137A90C008C0000D46A0EB080909E0014648688B
S1137AA0C008C000A0EB080048453CBF81460D4615
S1137AB008690028F2D149690029F0D1306985426A
S1137AC0C0F0BF806968C90808EB090BC9005945B3
S1137AD018BF00F09DFC05EB08008542009080F083
S1137AE0B080EF68AC69AF420CD0A86831698842B5
S1137AF023D3C268AA4204BFB968A9421DD1C76092
S1137B00B8601CE005F114010F6837B905F11001E4
S1137B100F68A7B101E011460F6807F1140210685D
S1137B20002802BF07F1100210680028F3D1306961
S1137B30814202D300220A6001E000F069FC002CBB
S1137B4031D0E8690AEB800001688D4208D10760F2
S1137B508FB9E8697168012282409143716022E023
S1137B603069844205D32169A94214BF6761276142
S1137B7001E000F04DFCB7B13069874211D3BC611C
S1137B80286930B13169884226BF3861876100F0C5
S1137B903FFC686938B13169884202D378618761F2
S1137BA001E000F035FCB9F1100F0BD24BF00300EB
S1137BB0291D6860281D51F80B2042F0010240F88D
S1137BC00B203DE048F003012A1D696049F00100E3
S1137BD042F80800009941F80990D6F808804FEA65
S1137BE0D80BBBF1200F28BF00F012FCB8F1000F36
S1137BF022D006EBCB00776900F12804A246B8F145
S1137C00100F38BF00F004FC306820FA0BF1CA07EB
S1137C1005D4012101FA0BF10843306006E0A068A5
S1137C20316988422CBF824600F0F2FBA760CAF893
S1137C300C70C7F808A0FC60C6F808900098706142
S1137C4004E000F0E5FB0020BDE8F28F05F1080038
S1137C50BDE8F28F2DE9FE4F0546AFF30080F52D08
S1137C60DFF89C6780F004810B2D31BF10250B35A4
S1137C70ED08ED003068EC08E04010F0030F46D04A
S1137C80C04300F00100041906F1280000EBC40809
S1137C90E700D8F808506868C008C000B84218BFA8
S1137CA000F0B6FBD5F80890454508BF00F0B0FBDE
S1137CB04D4508BF00F0ACFB6868C008C000B8427E
S1137CC018BF00F0A5FBC84507D13068012101FAAF
S1137CD004F420EA040434600DE03069814508D3DB
S1137CE0D9F80C10A94204D1C8F80890C9F80C803E
S1137CF001E000F08DFB47F00300291D6860281D9A
S1137D00CA5942F00102C25105F10804F8E0B16811
S1137D10A94280F0BE80002800F0A1804FF0010845
S1137D2008FA04F1490000FA04F4484201430C4003
S1137D3060420440641E200B00F01000C44061093E
S1137D4001F00801CC40A20802F00402D440630808
S1137D5003F002030818DC401018C4F34007181895
S1137D603818FC40241806F1280000EBC40AE70088
S1137D70DAF80890D9F80400C008C000B84218BF67
S1137D8000F046FBD9F808B0D14508BF00F040FB2D
S1137D90D94508BF00F03CFBD9F80400C008C00076
S1137DA0B84218BF00F034FBDA4506D1306808FA4F
S1137DB004F420EA040434600DE031698B4508D3EF
S1137DC0DBF80C00484504D1CAF808B0CBF80CA085
S1137DD001E000F01DFB7F1B45F0030009F10402E4
S1137DE0C9F8040047F00101515109EB0502019261
S1137DF0D751B4684FEAD40ABAF1200F28BF00F073
S1137E0007FB34B3CDF800A006F12800756900EB38
S1137E10CA0AD346102C38BF00F0FAFA3168009829
S1137E2021FA00F2D30704D408FA00F008433060C2
S1137E3007E0DAF80800316988422CBF834600F075
S1137E40E7FACAF80850CBF80C50C5F808B0C5F8E2
S1137E500CA0B76009F108040198706150E07068E3
S1137E60C0B329463046FFF7EEFD040011D047E0C9
S1137E7015F1400F28BF4FF0FF350AD20B35ED083E
S1137E807068ED0028B129463046FFF719FC04005C
S1137E9036D1B068A8421DD3411B726910290AD398
S1137EA050197061B16041F001034360415045F0E5
S1137EB0030555600BE00021B1607161131D40F0B2
S1137EC003015160111D1C5844F001040C5002F1CF
S1137ED0080415E0F06885420DD2401BB169F060DA
S1137EE04A19B26140F00100506045F003054D604D
S1137EF001F1080404E029463046FFF7F7FA044686
S1137F00AFF300802046FFF7EEBA002800D1704797
S1137F102DE9F047A0F10805AFF30080DFF8E06435
S1137F2031698D42C0F05982686800F00302012A69
S1137F3000F05382C2084FEAC209C20705EB0908E0
S1137F4039D42C6810F0030F00F0498260420544D4
S1137F508D42A144C0F041827069854200F0C68020
S1137F60E408202C5ED2D5F80CA0AF68554508BFB4
S1137F7000F04EFABD4208BF00F04AFA6868C00833
S1137F80C000B0EBC40F18BF00F042FA06F128009D
S1137F9000EBC400874205D031698F423FD3FA68B1
S1137FA0AA423CD1BA452CD13068012101FA04F42B
S1137FB020EA04043460454580F00F82D8F8044078
S1137FC0E00740F10A82A10700F16881B0698045A9
S1137FD040F09F80F168B5618944C6F80C9049F07F
S1137FE00100686071698D4202D100207061B06047
S1137FF0F069484580F0F38100213046FFF728FB03
S1138000EDE1824506D03069824508D3DAF80810DC
S1138010A94204D1C7F80CA0CAF80870CBE700F055
S1138020F7F9C8E7EC68AF69AC420BD0A86888429E
S113803022D3C168A94204BFA268AA421CD1C46069
S1138040A0601BE005F11402146834B905F11002B4
S113805014689CB101E01A46146804F1140318680A
S1138060002802BF04F1100318680028F3D18A42E3
S113807002D30021116001E000F0CAF9002F9AD068
S1138080E96906F5987000EB81000268954209D110
S11380900460200011D1E869716801228240914393
S11380A0716088E73069874205D33969A94214BFF2
S11380B07C613C6101E000F0ABF9002C3FF47BAF44
S11380C031698C42ABD3A761286928B1884226BFA5
S11380D02061846100F09CF9686900283FF46BAF6B
S11380E0316988429BD36061846164E798F8040035
S11380F000F0030003287FF45EAFC6F8089049F04F
S11381000101D8F8040040084000C8F80400696080
S11381100AE0706980450AD1B16875618944C6F87E
S1138120089049F00100686045F8099057E1E408B7
S1138130E400A144E408202C3AD2D8F80CA0D8F8E2
S11381400870D04508BF00F063F9B84508BF00F0D7
S11381505FF9D8F80400C008C000B0EBC40F18BF22
S113816000F056F906F1280000EBC400874207D05E
S113817031698F42C0F08580FA68424540F08180C1
S1138180BA4507D13068012101FA04F420EA040455
S1138190346078E0824506D03069824571D3DAF8DC
S11381A0081041456DD1C7F80CA0CAF808706AE000
S11381B0D8F80C40D8F8187044450DD0D8F8080009
S11381C03169884223D3C268424504BFA16841454E
S11381D01DD1C460A0601CE008F114010C6834B91E
S11381E008F110010C68A4B101E011460C6804F117
S11381F014021068002802BF04F11002106800285D
S1138200F3D13069814202D300220A6001E000F018
S1138210FFF8002F37D0D8F81C1006F5987000EB43
S11382208100026890450AD10460200012D1D8F878
S11382301C007168012282409143716023E030691F
S1138240874205D33969414514BF7C613C6101E033
S113825000F0DEF8BCB131698C4212D3A761D8F8C2
S1138260100028B1884226BF2061846100F0D0F854
S1138270D8F8140038B13169884202D3606184614E
S113828001E000F0C5F849F00100686045F8099084
S113829071698D420BD1C6F80890A0E064086400AF
S11382A0C8F8044049F00100686045F809904FEAB5
S11382B0D907202F22D206F1280000EBC704A046DC
S11382C0B9F1100F38BF00F0A3F8306820FA07F1B5
S11382D0CA0705D4012101FA07F70743376006E00E
S11382E0A068316988422CBF804600F091F8A560EF
S11382F0C8F80C50C5F80880EC6070E05FEA1920FB
S113830008BF002123D0B0F5803F28BF1F211ED213
S1138310A0F58072120C02F008029040A0F5805182
S1138320090C01F004018840A0F580431B0CC2F144
S11383300E0203F00203521AD21A984002EBD03212
S1138340D01D29FA00F101F0010101EB420106F50B
S11383509872002302EB8100E9616B612B61726802
S113836022FA01F3DC0707D4012303FA01F11143D4
S113837071600560A8611DE002681F291DBF4908DE
S1138380C1F1190109FA01F1494600E002465068B9
S1138390C008C000484526D002F11003C80F03EB03
S11383A08003490018680028F0D13069834204D35F
S11383B01D60AA61ED60AD6001E000F029F8306A4B
S11383C0401E30620BD1D6F8C80100E08068002856
S11383D0FCD14FF0FF30306201E000F019F8AFF348
S11383E00080BDE8F087316990688A4228BF8842DE
S11383F0E3D3C5609560A860EA600020A861DEE769
S1138400B411002030BC002070470000FFF77DBD90
S1138410012000F017B800000749086808B10020DF
S113842070470648C008C00008600549C908C9006B
S1138430091A0160704700BF0C2300201F3300207D
S1138440183B002080B5AFF30080024A11001820C9
S1138450ABBEFBE72600020010B40021294B00E06C
S1138460491C012906D80A019C58A042F8D1981841
S1138470001D00E0002010BC704738B504460D46CE
S1138480002C07D02846092804DA2046FFF7E4FF29
S1138490002801D1042032BD1B48844202D01B486D
S11384A0844205D11A48017865F30301017026E07E
S11384B01848844202D01848844207D114480178ED
S11384C001F00F0141EA0511017018E013488442DC
S11384D002D01348844205D11248017865F30301A0
S11384E001700CE01048844202D01048844206D146
S11384F00C48017801F00F0141EA051101700020D8
S113850032BD000018C0FF1F00500240405002401E
S11385100151024080500240C050024000520240CB
S1138520405202400153024080520240C052024075
S113853038B504460D46002C00F08780FFF78CFF09
S1138540002800F08280A1894FF68F700140A1813C
S11385500120A18960F30611A18129780846072921
S113856003D90839022909D910E0617C01F0FE0120
S11385706174A18960F30E31A18107E0617C41F04F
S113858001016174A18960F30E31A181687800282A
S113859002D0012806D058E0A1894FF2FF700140B3
S11385A0A18103E0A08940F40060A081A87800289C
S11385B002D0012806D048E0A1894FF6FF300140DF
S11385C0A18103E0A08940F48060A081287900287B
S11385D002D0012806D038E0A1894FF6F770014097
S11385E0A18103E0A08940F00800A081E878032875
S11385F02BD8DFE800F002080E14A1894FF6FF40E3
S11386000140A1810FE00120A18960F30921A1812A
S113861009E00220A18960F30921A18103E0A08976
S113862040F44070A0816879002802D0012807D066
S11386300BE0A1894FF6FB700140A181002032BDFF
S1138640A08940F00400A081F8E7042032BD00288E
S113865001D104207047818941F002018181002009
S11386607047002801D10420704782894FF6FD71BC
S11386700A40828100207047002801D104207047FD
S1138680818941F00101818100207047002801D1D6
S113869004207047018000207047002801D1042085
S11386A07047818000207047704770472DE9F84378
S11386B001F0E8F8DFF84019DFF84029DFF8403925
S11386C0DFF84059DFF84069DFF84049DFF84079C6
S11386D0C0780D2838D1DFF83CE9C7F844E0DFF86A
S11386E03889C7F84880DFF83499C7F84C90DFF828
S11386F030093865DFF85CCCC4F800C00EF1040E14
S1138700C7F854E008F1040EC7F858E009F1040E64
S1138710C7F85CE0001D38660CF104006060A660D8
S1138720E56023616261A16106F11000E06105F179
S11387301000206203F11000606202F11000A062D8
S113874001F11000E06222E006F10800786405F10E
S11387500800B86403F10800F86402F10800386501
S113876001F10800206006F11000786505F11000A1
S1138770B86503F11000F86502F11000386601F1E4
S113878010006060A660E56023616261A161012060
S1138790F96C0860B96C08600020796C08600120ED
S11387A0F96D0860B96D08600020796D086001F00A
S11387B069F82169C0780D280FD101200860E168AB
S11387C008600020A16808600120616A0860216ACD
S11387D008600020E169086006E001200860E168A3
S11387E008600020A1680860BDE8F183002070479C
S11387F080B50B460021042806D0F0280CD0FE28B2
S113880014D0FF280CD014E05FF004020AA118462B
S1138810FEF7ECF904210CE003201870012108E0B4
S11388204020187008465870022102E00120187098
S11388300146084602BD0000312E3000027840781F
S113884042EA0022362042431046421E0028FBD151
S1138850002008700120704710B50C4601780029EB
S113886002D0012909D00EE0407800F00100FFF7A2
S11388701BFF00202070012010BD407800F0010093
S1138880FFF713FFF5E7FF202070012010BD10B49F
S11388900078002800D101200246012A02D0022AD1
S11388A01FD043E0DFF86827012313700023546CC2
S11388B023600123D46C2360946C23600023546DE3
S11388C023600123D46D2360926D13600022DFF8CE
S11388D0D03B1A60DFF8CC3B1A600870012010BC52
S11388E07047DFF82C27022313700023546C236095
S11388F00123D46C2360946C23600023546D2360A3
S11389000123D46D2360926D1360DFF8942B002350
S113891013600123DFF8904B2360DFF8883B0124C8
S11389201C600024946022469A60D6E700200870F8
S11389300120D4E7DFF8D81600220A704B6C1A60C5
S11389408B6C1A604B6D1A60896D0A60DFF8501BDE
S11389500A60DFF8502B002313608B601946916086
S113896001700120704710B50446FFF73FFF6070A7
S113897000202070022010BDF0B50C46077890F856
S113898001C08378C17843EA0123017943EA0143B2
S1138990407943EA00631CF00100DFF8746607D0F5
S11389A007F00101491E8941C943C90FF26C1160E6
S11389B01CF0020107D007F00202521E9241D2437A
S11389C0D20FF56D2A601CF0040205D03D46AD08B7
S11389D0DFF8D4EACEF80050002B4FD0DFF8CC5AA1
S11389E0AB4200D92B46DFF8C8EA0025CEF8085080
S11389F0DFF8C05A6B43DFF8385CB3FBF5F3CEF80D
S1138A0004300523CEF80030002809D0336D1B68EC
S1138A10012B01D1012300E0002393EA070F26D1A3
S1138A20002909D0336E1B68012B01D1012300E01A
S1138A30002393EA570F1AD1002A0AD0DFF8F43B37
S1138A401B68012B01D1012300E0002393EA970F57
S1138A500DD15FEA8C6302D53B465B0907D15FEA1F
S1138A600C6308D53B46DB0993F0010F03D0DEF815
S1138A700030DB03C8D50020CEF80000306D00685C
S1138A80012801D1012000E00020316E096801298C
S1138A9001D1012100E00021DFF8982B1368012B9C
S1138AA001D1012300E000239268012A01D10122AF
S1138AB000E0002240EA410040EA830040EAC200AC
S1138AC040F0800020700120F0BD10B50C46DFF8A6
S1138AD040150278012A10D182784078012803D108
S1138AE001204870486005E000204870042A00DB3B
S1138AF003224A6001F007FB03E04878607048688D
S1138B00A07000202070012010BD10B50C4610F894
S1138B10012B002A01D14FF480720146104600F067
S1138B20B7FE00202070012010BD0078DFF8E0249B
S1138B3000F003035B1C1376800800F001005076FC
S1138B40002008700120704738B50C46DFF8C05487
S1138B502978012903D0FF202070012032BD4178FB
S1138B60827841EA0221C27841EA0241007941EA6D
S1138B70006100916946002001F0C2FA6866002095
S1138B802070012032BD2DE9F04104460D4600203D
S1138B9005F8010B012614F8017B14E014F8018B8D
S1138BA02A462146404601F0CBFA18F03F0000D196
S1138BB04020C01D04EBD0045FEA086103D505EB37
S1138BC0D00516EBD0063846471E0028E6D13046BD
S1138BD0BDE8F081F0B410F8012BDFF834349A7654
S1138BE00024254609E010F8016B03F11C077E55AB
S1138BF003EB4507BC8434196D1C9542F3D3002064
S1138C0007E003F11C052D5C641B03EB4005AC86F7
S1138C10401C9042F5D3002008700120F0BC70473E
S1138C2010B50C46DFF8E8130A78022A03D0FF20B7
S1138C302070012010BD0078C876897E8842F6D263
S1138C400E2002F09AF901F0D1FF0021217060702A
S1138C500146090AA1700146090CE170000E207159
S1138C60052010BD38B505460C46DFF8A40301788D
S1138C70022903D0FF202070012032BD2978C1765B
S1138C80807E8142F6D2082002F077F96878A978CC
S1138C9040EA0120E97840EA0140297940EA01608C
S1138CA002F05CF800202070012032BD10B4DFF81F
S1138CB06023037813734378847843EA0423D381CD
S1138CC0C378007943EA002313820020087001204E
S1138CD010BC70472DE9F84F86B00246002003907F
S1138CE002918F1CDFF8BC5A014629700446019199
S1138CF05178059102F10209C54E05994A1E059263
S1138D00002926D019F801AB5FEA8A716AD5002CD4
S1138D1000F0FB80B6F80E800AF01100012840F044
S1138D20D4806946504601F0EBF90146022907D187
S1138D304046A0F10108002802D028780028F0D08D
S1138D400846D3E0424501D040F01000012800F06D
S1138D504F8101281ED1002C00F09E80F4896946C1
S1138D600E2001F0CDF9022806D121464C1E00291F
S1138D7002D029780029F2D001280BD1009939704A
S1138D800099090A79700099090CB9700099090EC3
S1138D90F9703F1D0399029A1170029948700128D5
S1138DA040F08F8002983F1A38468BE0B6F80E8068
S1138DB0002900F0FE80002C40F01A81002150466A
S1138DC001F09EF90146022907D14046A0F10108AD
S1138DD0002802D028780028F0D008460128B8D10D
S1138DE0012405E1002C20D0B6F80E8069460E203F
S1138DF001F086F90146022907D14046A0F1010895
S1138E00002802D028780028F0D008460128A0D1F4
S1138E10009838700098000A78700098000CB870B8
S1138E200098000EF8703F1D002499F8000099F88E
S1138E30011040EA012099F8021040EA014099F833
S1138E40031040EA0160009009F104095FEA8A60B6
S1138E5003D500987061012016E0B6F80E806946CB
S1138E60504601F04DF90146022907D14046A0F1D0
S1138E700108002802D028780028F0D008460128EC
S1138E807FF467AF012101910399491C039129786B
S1138E9000293FF432AF5CE7019900293FF47AAF2F
S1138EA0F48900210E2001F02BF902287FF472AF1F
S1138EB021464C1E00293FF46DAF29780029F0D0DB
S1138EC068E7002007B0BDE8F08F69460E2001F086
S1138ED017F90146022907D14046A0F101080028EC
S1138EE002D028780028F0D00846002401287FF416
S1138EF030AF009939700099090A79700099090C0A
S1138F00B9700099090EF9703F1D0AF001015FEA7A
S1138F10CA627FF54BAF99F8008099F8010048EADE
S1138F20002899F8020048EA004899F8030048EA42
S1138F30006809F10409308A0490002914D0B6F8B5
S1138F400EB00021504601F0DBF80146022907D19A
S1138F505846A0F1010B002802D028780028F0D050
S1138F60084601287FF4F5AEB6F80EB069465046BF
S1138F7001F0C6F80146022907D15846A0F1010BB9
S1138F80002802D028780028F0D00846009A716999
S1138F900A4001287FF4D6AE42453FF4D3AE04998B
S1138FA04B1E049300293FF4CDAE29780029DBD071
S1138FB0C8E66946504601F0A3F80146022907D1E4
S1138FC04046A0F10108002802D028780028F0D0FB
S1138FD0084601287FF4BDAE009939700099090A4A
S1138FE079700099090CB9700099090EF9703F1D48
S1138FF00021019148E700000020664200606642BB
S1139000008066420040664200006642201F002045
S1139010BC1C002084006642844066428480664210
S1139020846066422DE9F84F86B00A460021029119
S11390300192961CDFF86C570A462A7088460C4643
S11390400278DFF86437DA769B7E9A4280F05081AA
S113905042780592871C0598421E0592002800F06C
S11390601E8117F8019B5FEAC97002D54FF00B0A05
S113907001E04FF00A0A5FEA897040F1B480002CE5
S113908041D0DFF82407C0890390D04514D15FEAAA
S1139090C96011D4DDF80CB06946484601F075FF8B
S11390A00146022920D15846A0F1010B00281BD00B
S11390B02878002818D1EFE7B8F10A0F04D04FF050
S11390C00A08404601F059FF039C69460E2001F04E
S11390D05CFF0146022906D12046441E002802D026
S11390E028780028F1D00024012940F0D880009885
S11390F030700098000A70700098000CB0700098EE
S1139100000EF070361D5FEAC9604CD53878797866
S113911040EA0120B97840EA0140F97840EA016068
S113912004903F1DDFF88006008A0390D04503D0E9
S1139130D046404601F021FFDFF86C06B0F80EA0DF
S11391400021484601F021FF0146022907D150467B
S1139150A0F1010A002802D028780028F0D0CA46DD
S11391600129DFF8449640F09A80B9F80EB06946B8
S1139170504601F00AFF0146022907D15846A0F1E2
S1139180010B002802D028780028F0D0009AD9F8E2
S113919014000240012900F0C580049882427CD06A
S11391A041F0100179E0002C40F0CB80D04503D091
S11391B0D046404601F0E1FEDFF8EC05B0F80EA021
S11391C00021484601F0E1FE0146022907D150463C
S11391D0A0F1010A002802D028780028F0D0012943
S11391E05DD10124ADE0002C29D0B8F10A0F04D0E0
S11391F04FF00A08404601F0C0FEDFF8AC05B0F8B5
S11392000EB069460E2001F0C0FE0146022907D1C6
S11392105846A0F1010B002802D028780028F0D08D
S113922001293CD1009830700098000A70700098B1
S1139230000CB0700098000EF070361D00243878D1
S1139240797840EA0120B97840EA0140F97840EAA7
S1139250016000903F1D5FEA896005D50098DFF842
S11392604815486101216CE0D04503D0D046404602
S113927001F083FEDFF83005B0F80EA069464846D9
S113928001F083FE0146022907D15046A0F1010AEC
S1139290002802D028780028F0D0012951D00129D3
S11392A026D1B8F10A0F02D00A2001F066FEDFF8D9
S11392B0F804C789002C26D069460E2001F065FE0B
S11392C00146022906D13846471E002802D02878D4
S11392D00028F1D001290BD1009830700098000AC1
S11392E070700098000CB0700098000EF070361D7D
S11392F00298019A1070019841700198361A30460C
S113930007B0BDE8F08F00210E2001F03EFE0146BB
S11393100229EDD13846471E0028E9D028780028D4
S1139320F1D0E5E7049882423FF437AF0398431E37
S1139330039300283FF431AF287800283FF415AF99
S11393402BE70298401C0290287800283FF483AE53
S1139350A5E70000842066422DE9F84F0246002567
S113936028460E46CF1CDFF83C84014688F80010DE
S1139370511C0C784A7854EA022420D091F802A0B7
S113938001F103095FEA8A7172D55FEACA712DD5CA
S1139390DFF81404B0F80E902946504600F0B0FEF1
S11393A00146022908D14846A0F10109002803D04A
S11393B098F800000028EFD00846012816D0357030
S11393C02D0A7570B070BF1B3846BDE8F28F0128B6
S11393D0F5D1009939700099090A79700099090C3E
S11393E0B9700099090EF9703F1D6D1C21464C1E81
S11393F00029E4D0002C04D15FEACA7001D54FF0F3
S11394000E0ADFF8A403B0F80E906946504600F047
S113941077FE0228DBD14946A1F101090029D6D003
S113942098F800100029F0D0D1E799F8000099F8D5
S1139430011040EA012099F8021040EA014099F82D
S1139440031040EA0160009009F10409694650469E
S113945000F056FE022808D15946A1F1010B00295B
S113946003D098F800100029F0D00128A7D16D1C72
S11394702046441EDFF83013B1F80EB00028D4D1D2
S113948000210E2000F03CFE022898D15946A1F19B
S1139490010B002993D098F800100029F0D08EE732
S11394A0080066420840664208806642C0C62D0035
S11394B010E000E0006889092DE9FE4F0A464FF0EC
S11394C0000841460192D71C0A46B64B1A70B64DA5
S11394D010F8012BEA76AB7E9A4228D204784278BF
S11394E054EA022423D090F802A000F103095FEAB1
S11394F0CA7001D50B2600E00A26304601F03DFD76
S11395005FEA8A7079D5B5F80E904146504601F06D
S11395103CFD0146022908D14846A0F10109002872
S113952003D0A04800780028EFD001291ED001986C
S113953080F800804FEA1828019880F8018001988B
S1139540817001983F1A3846BDE8FE8F0129EED19B
S1139550009838700098000A78700098000CB87071
S11395600098000EF8703F1D08F101082046441EC3
S11395700028DCD0002C06D10A2E02D00A2001F0EB
S1139580FCFC4FF00E0AB5F80E906946504601F007
S1139590FCFC01460229D9D14846A0F10109002862
S11395A0D4D0804800780028EFD0CFE799F80000A5
S11395B099F8011040EA012099F8021040EA0140AC
S11395C099F8031040EA0160009009F10409B5F824
S11395D00EB06946504601F0D8FC0146022908D174
S11395E05846A0F1010B002803D06E4800780028EB
S11395F0EFD001299BD108F101082046441E002820
S1139600D4D10A2E02D00A2001F0B7FCEC89002143
S11396100E2001F0BAFC0146022988D12046441EDE
S1139620002884D05F4800780028F0D07FE700004D
S113963040420F000860664210B50C4601780A46A5
S1139640803A202A04D22146BDE8104001F0AEBC85
S113965004F8011B10F8011B162900F28680DFE8CC
S113966001F00C13181C44485C8471202484848405
S11396708484282C3034383C4000611C0078FFF787
S1139680B7F82070801C10BD2146FFF7E5F8401C98
S113969010BD2146FFF7FBF8F9E72046FFF74AF92A
S11396A0F5E72146FFF7CAF8F1E72046FFF75BF933
S11396B0EDE72146FFF760F9E9E72146FFF705FAF0
S11396C0E5E72146FFF721FAE1E72146FFF72DFA06
S11396D0DDE72146FFF757FAD9E72146FFF77AFA83
S11396E0D5E72146FFF79CFAD1E72146FFF7DEFADA
S11396F0CDE72D490978012902D0022904D007E0D9
S11397002146FFF7E7FAC2E72146FFF78BFCBEE7E5
S11397100020207060700220B9E7234909780129EC
S113972002D0022904D007E02146FFF715FEAEE778
S11397302146FFF7C1FEAAE7002020706070A070E8
S11397400320A4E718490978012902D0022904D08A
S113975007E02146FFF7F8F999E72146FFF782FA77
S113976095E7FF202070022010BDFF2004F8010CB3
S1139770012010BD80B50C48012101700021017346
S11397806421C1810021018241610121017600210E
S113979041768176816000F0B6FCBDE80140FEF7B9
S11397A085BF0000B5210020BC1C002078B58DB019
S11397B0354C02202070062060700320A0700C201D
S11397C0E070282103A8FCF77DFB0C216846FCF718
S11397D079FB2020019000208DF80000ADF80800EE
S11397E08DF80A0001208DF80C000020049002205E
S11397F08DF8140008208DF8150002208DF816004D
S113980008208DF8170003208DF81800684607908B
S11398101E4D03A92846FCF713F9002802D1284657
S1139820FCF711FB2846FCF729FB00212846FCF72E
S1139830C9FA0128F9D100212846FCF7DFFA2846A5
S1139840FCF726FB064631462846FCF728FB012890
S113985012D131462846FCF728FB40F601418842E4
S113986002DB0D20E07007E031462846FCF71DFBC3
S1139870FB2801DB0B20E07001212846FCF779FA74
S11398800EB070BD004870470823002000700240ED
S1139890F0B402460B460024214624E0002902D1FC
S11398A013F8014B082104F00100401E8041C0431D
S11398B0C00FDFF868582D682860DFF8645800206E
S11398C02E683060DFF85C6877683846471E0028E9
S11398D0FBD101202D68286075682846451E0028A4
S11398E0FBD16408491E1046421E0028D6D1F0BCA4
S11398F070472DE9F84F83460C46DFF820580120C5
S113990029680860DFF818680020316808600120C1
S1139910316808602868C0F800B000203168086029
S11399200120316808605846400829680860002111
S1139930326811600121326811605844594689081F
S11399402A681160002233681A60012233681A60A1
S113995008185946C9082A681160002233681A6039
S1139960012233681A6008182968086000203168E9
S11399700860104631680860002029680860316872
S11399800860104631680860296808600020316862
S11399900860104631680860FFF774FFDFF88887B5
S11399A0D8F80010C0780D2807D1002008600120E5
S11399B0DFF878170968086001E000200860DFF824
S11399C070970020D9F800100860DFF858A79AF8BB
S11399D0180005E000220A60012132681160401E6F
S11399E031680028F6D100200860DFF848170868BD
S11399F0076801203268106000203268106008682F
S1139A000068012233681A6047EA40070020326880
S1139A10106008680068012233681A6047EA80070A
S1139A20012F40F099805FEA8B704DD500231A46D0
S1139A30202014E04FF0000ECCF800E0D1F800C074
S1139A40DCF800C04FF0010ED6F800B0CBF800E00F
S1139A5062444FEACC7C4CEA530C6346401ED6F871
S1139A6000C00028E6D10020CCF800000868006897
S1139A700121D6F800C0CCF800105040C00700D532
S1139A800827002C00D023609AF81800002806E06C
S1139A90002132681160012132681160401EF7D143
S1139AA0FFF7F0FED8F80010C0780D2806D1012089
S1139AB00860DFF878160968086001E00120086092
S1139AC0D9F80010086036E09AF81800002806E07B
S1139AD0002132681160012132681160401EF7D103
S1139AE0FFF7D0FED8F80010C0780D2806D1012069
S1139AF00860DFF838160968086001E00120086092
S1139B00D9F80010086022680021202009E01A60BA
S1139B1000233468236001233468236051185208F9
S1139B20401E2B680028F2D11960002031680860BB
S1139B300120316808609AF80C00002862D00021E6
S1139B402A68116000285DD000213268116001216B
S1139B5032681160401EF5E7022F01D0042F44D172
S1139B609AF8190000280CD05FEA8B7009D52120DF
S1139B7006E0002132681160012132681160401E44
S1139B80F7D19AF81800002806E000213268116025
S1139B90012132681160401EF7D1FFF773FED8F837
S1139BA00010C0780D2806D101200860DFF87C156C
S1139BB00968086001E001200860D9F80010086015
S1139BC09AF8190000281DD05FEA8B701AD400207F
S1139BD0296808602120002814D00021326811600F
S1139BE0012132681160401EF5E79AF8180021300F
S1139BF0002807D000213268116001213268116009
S1139C00401EF5E70120296808603846C0B2BDE867
S1139C10F28F2DE9F84F80468B46DFF8004501208E
S1139C2021680860DFF8F854002029680860DFF82C
S1139C30F46471680846411E0028FBD1012029689C
S1139C40086071680846411E0028FBD12068C0F8EE
S1139C50008000202968086071680846411E0028B9
S1139C60FBD101202968086071680846411E00285C
S1139C70FBD1414649082068016000202A68106031
S1139C8072681046421E0028FBD101202A68106029
S1139C9072681046421E0028FBD141444246920895
S1139CA02068026000202B68186073681846431E01
S1139CB00028FBD101202B68186073681846431EE6
S1139CC00028FBD151184246D208206802600020C7
S1139CD02B68186073681846431E0028FBD10120C6
S1139CE02B68186073681846431E0028FBD151186E
