:1000000008EBFF1F89370000A5370000A937000063
:1000100000000000000000000000000000000000E0
:10002000000000000000000000000000AD370000EC
:100030000000000000000000B1370000A52F000004
:10004000B5370000B9370000BD370000C1370000E8
:10005000C5370000C9370000CD370000B9360000B1
:10006000CB360000D1370000D5370000D93700006B
:10007000DD370000E1370000E5370000E937000018
:10008000ED370000F1370000F5370000F9370000C8
:10009000FD37000001380000053800000938000075
:1000A0000D38000011380000153800001938000024
:1000B0001D380000213800002538000029380000D4
:1000C0002D38000031380000ED360000F136000018
:1000D000002200F097B8000010B500F02BFA224C77
:1000E000204601F032FA2046BDE8104000F0EEB99B
:1000F000401E07281D491E4A13D8DFE800F00414EB
:1001000016181B2023251B48016821F400110160EB
:100110000120194908600020184908600120184989
:100120000860002070470020FAE70120F8E700206F
:100130001449F5E7144800680128F3D0F1E70020DE
:100140001060EEE70120FBE710480068C007E8D523
:100150000F48006800F0010080F0010070470022A5
:100160000021014800F057BA002104403C006042E1
:10017000F8016042003503400003664200436642D6
:100180007CC366423C016042BC00604218330340BD
:1001900018340340002200F053B8000013480178DF
:1001A00001B1704710B51249124C00220A700023A9
:1001B000114A13600B710B7107230B7200230B7331
:1001C00017230B74012323700C4C23600C4B1B680A
:1001D000002BFBD003230B700121116000BF00BF77
:1001E00000BF00BF00BF017010BD0000C0FBFF1FBB
:1001F000006003402460034000066C4280006C42B3
:1002000080026C4200B500BF130096469446103938
:1002100028BFA0E80C50FAD85FEA417C28BF0CC088
:1002200048BF40F8042BC90728BF20F8022B48BF5D
:1002300000F8012B00BD000062F30F2262F31F42A1
:10024000401810F0030308D0C91A1FD3DB0748BFBA
:1002500000F8012D28BF20F8022D130030B41446F9
:100260001546103928BF20E93C00FAD8490728BFB5
:1002700020E90C0048BF40F8042D890028BF20F871
:10028000022D48BF00F8012D30BC7047C91818BFB7
:1002900000F8012DCB0728BF00F8012D70470000A2
:1002A00002F071BBF8B50C4615461E46002701E06A
:1002B00000F00CF8B74207D22146284602F04DFC68
:1002C0000028F5D00120F2BD0020F2BD4FF480508F
:1002D0006D1C04447F1C7047002003290ED8DFE802
:1002E00001F00E0905024FF4803105E04FF4805112
:1002F000118070474FF400711160704704207047FF
:10030000002918BFFFF746BF70470000EFF31080C9
:1003100072B6704770470000820707D010F8012BB3
:1003200011F8013BBAB19A42F6D014E002680B68AA
:100330009A42A2F1013301BF934313F0803F50F87A
:10034000042F51F8043FF3D010F8012B11F8013BB2
:100350000AB19A42F8D0D01A7047F0B401684468E4
:100360008368014401EB5402E40748BF4B449142C7
:1003700002D1F0BC0C30704711F8015B15F0030698
:1003800004BF11F8014BE61C2C090F2C07D111F802
:10039000014B0F3403E011F8017B03F8017B761E5B
:1003A000F9D1002CE3D0AD0811F8016B05F003057D
:1003B000032D08BF11F8015B06EB05256D42A41C57
:1003C0001D44D4D015F8016B03F8016B641EF9D1FC
:1003D000CDE7000010B5074979441831064C7C443C
:1003E000163404E00A68081D114488470146A142FA
:0C03F000F8D110BD343300005033000081
:10040000424C5F56312E305F32303137313132332A
:100410003133313000000000000000000000000017
:10042000012100F01F029140DFF80C27FFE740098F
:1004300042F820107047012100F01F029140DFF8C0
:10044000FC26F4E70901002807D5DFF8F42600F0C0
:100450000F00104400F8041C7047DFF8E826115420
:10046000704781B0002100914FF4C271DFF8D826A7
:1004700002E0009B5B1C0093009B4BB9009B4B432D
:10048000D3589842F5D1009848431044001D00E02D
:10049000002001B0704780B5DFF8B016884213D154
:1004A0002220FFF7C8FF2220FFF7BAFF0F212220EA
:1004B000FFF7C8FF2320FFF7BEFF2320FFF7B0FFA1
:1004C0000F212320FFF7BEFF002002BD70B500F012
:1004D000B5F90546EE1C707838B94FF4C07128465E
:1004E000FFF7F6FD204600F0ABF9DFF86406007870
:1004F00008B900F01FF82046FFF7CDFF012030704B
:100500004FF4A8702844DFF84C160160DFF8481655
:1005100041600120FFF7ECFD0820FFF7E9FD00280E
:1005200014BF06200720FFF7E3FD0320FFF7E0FDDF
:10053000002070BD10B582B000200090DFF80846A2
:100540000CE000984FF4C272504320444FF4C07145
:10055000001DFFF71FFE0098401C00900098002827
:10056000EFD0DFF8E80500F06BF9DFF8F0150120B7
:100570000860DFF8EC150860DFF8E8150860DFF8C0
:10058000E805016821F480110160FFF707FEDFF83C
:10059000C01501200870002016BD70B50C46164627
:1005A0001D46FFF75EFF08B9072070BD04F01F016C
:1005B00024225143084400F17801C6F308008A68F8
:1005C00010800C70488004F080008A68138801282D
:1005D000ACBF0120002043EA003010808868028808
:1005E00042EA453202804868400100F184420498A2
:1005F0003832012806D104F08000431E9B41DB0FF6
:10060000136001E0002010608868018841F4004117
:100610000180002070BD2DE9F04180460E4617464E
:10062000FFF71FFF050008BF072036D0DFF83C4565
:10063000206818B12068401E20602BE016B1032E00
:1006400015D029E00820FFF753FD012801BF687885
:100650000028E87801281FD1404600F020F8401E0D
:100660008041C00F68706878012813D114E0687861
:10067000012804BFE878012806D1404600F09DF823
:1006800000B10120687027606878002804BF2878CE
:10069000002802D00A2000E00020BDE8F08130B53B
:1006A00097B000F0CBF8050008BF07207AD02046AD
:1006B00000F0C6F8204600F080F8208C40F0800062
:1006C00020844FF6EF71A020208400202080208815
:1006D00040F00200208000F06CF84FF6BF7100F08F
:1006E00068F84FF6FD7100F064F8208C40F00800C7
:1006F00020844FF4A87028444168C979C029218C0E
:100700000EBF41F001014FF6FE72114021844FF6F9
:100710007F710068C079A08400F04BF801A92046E1
:1007200000F0CBFE0498A86095F850000AE000980D
:10073000242148432844406B0188C1F30E01018005
:100740000098401E009000980028F0D194F84100D5
:1007500040F0200084F841004BF6FF7294F841000D
:1007600000F0EF0000F020F840F0080000F01CF866
:1007700040F0040000F018F840F0010000F014F818
:1007800000F0FD0084F8410004F1440001881140AC
:100790000180818841F4804181804FF6DF7100F053
:1007A00008F8002017B030BD84F8410094F84100EB
:1007B0007047208C08402084704738B500F03EF820
:1007C00008B9072032BD00210FE024224A43024429
:1007D000491C536B1D88C5F30E051D804BF6FF7534
:1007E000526B13882B401380C9B290F8502091426D
:1007F000EBDB94F8411001F0FD0184F841104BF659
:10080000FF73218C41F020012184218C41F0800173
:100810002184002184F8411004F144010A881A401F
:100820000A808A881A408A80816808001CBF204696
:100830008847204600F07EF8002032BD044610E6CE
:1008400038B5FFF7FBFF08B9072032BD021D0121B3
:100850001170072300F150010B7000235370002228
:1008600000EBC2034FF4AC752B44521C0025052A43
:100870005D601D80F4DBA0222284A5842585A585EA
:100880002586A58604F14002258715705570958050
:100890001581958115829582158395832580257113
:1008A000657110222272627480220A714022CA800D
:1008B00004F144028A6004F12402CA6004F1600277
:1008C0000A618D6100F170010D704C600D72402263
:1008D0004A8104F14802CA6004F124020A6104F169
:1008E00060024A61CD6100F1940101220D704C60FB
:1008F0000A724D8104F14C02CA6004F128020A61B7
:1009000004F164024A61CD6100F1B80102220D7068
:100910004C600A724D8104F15002CA6004F12C024D
:100920000A6104F168024A61CD6100F8DC5F44604D
:10093000002032BDA0210184002200218184018594
:10094000818501868186018700F140010A704A7025
:100950008A800A818A810A828A820A838A83028043
:10096000027142711021017241740020704710B56C
:100970000C46FFF776FDC0B11F22144205D104F0EA
:10098000800101290FDB543010BD90F8502004F095
:100990001F01921E8A4208DB24225143084490F82A
:1009A0007810A14201D1783010BD002010BD81B077
:1009B0006F4901E00099491E0091416809880905C5
:1009C00002D500990029F5D1009909B9092005E05F
:1009D0008068018841F400710180002001B07047F7
:1009E00070B5002403B11C8028B1002918BF002B6A
:1009F00003D1150001D0042070BD45682D886D0518
:100A000001D40A2070BD4588954238BF42881546FA
:100A100005EBD5767610B5EB460608BF012492B1FA
:100A2000002205E0C66831F8022B32801A88921C39
:100A30001A806E1E1A88B242F4DB24B9521C1A8046
:100A4000C2680978117000214068400100F18440BB
:100A500040F8281F002070BDF8B50024ADF8024012
:100A6000002A14BF14800DF102024FF6FF7516889C
:100A700006F44047B7F5004F08BFC6F3090508B9AB
:100A80000420F2BD466837887F0501D40A20F2BDF4
:100A9000368806F07F0606EBD6777F08B6EB470769
:100AA000168008BF0124D6B1002601E0B61CB6B2FC
:100AB00017887F1EBE4209DB8CB9C768AE42B9BF3A
:100AC0003A780A703978ADF8001008E0C7683F88B6
:100AD000AE42B4BF21F8027BADF80070E6E733B157
:100AE0004068400100F18440002140F8281F0020A8
:100AF000F2BD08B90420704740680188490501D457
:100B00000A207047400100F18440002140F8281F6E
:100B100000207047018CC1F34011002912BF002052
:100B200090F84100C0F3400070471249074823E0A5
:100B3000104906489FE0000000E100E080E200E08C
:100B400018ED00E000E400E094E1FF1F0021044004
:100B5000A3FBFF1FF43600000837000010B0664208
:100B600024C066420403664200350340BCFBFF1FFD
:100B700040420F0098E1FF1FF8B5044604F140071A
:100B80000D463878C0F3400038B13889C0F3803062
:100B900018B9388940F48040388105F15006388909
:100BA000C0F3802000281EBF3889C0F380300028A1
:100BB0001AD03878C0F3400038B1387800F0FD0022
:100BC0003870204600F04BFB0EE03889F06B28B1FE
:100BD000F26B05F178012046904705E038893889A5
:100BE0004FF6FF3108403881B888C0F380200028D4
:100BF0001EBFB888C0F38030002806D0B06920B18D
:100C0000B26905F154012046904702200090242744
:100C10001DE0009979432944002081F87100009873
:100C20007843284490F871000128F2D00098784366
:100C30002844806E40B10098C0B278432A1802F16F
:100C40005401926E204690470098401C00900098F6
:100C50003178884208D200F008F84005F4D500F059
:100C600004F84004DBD4EFE7F1BD00987843284452
:100C7000806D008870472DE9F0410D4682B08046B6
:100C80006878002800F0B68008F1240605F108070E
:100C9000307FC00708D5307F00F0FE00307739681C
:100CA00008001CBF404688473088C0F3402020B170
:100CB00030884FF6FF5108403080307FC0F340004D
:100CC00038B1B08CC0F3803018B9B08C40F480409B
:100CD000B08405F15004B08CC0F3802000281EBF02
:100CE000B08CC0F3803000281AD0307FC0F34000B1
:100CF00038B1307F00F0FD003077404600F0AFFAA9
:100D00000EE0B08CE06B28B1E26B05F17801404653
:100D1000904705E0B08CB08C4FF6FF310840B084AE
:100D2000308CC0F3802000281EBF308CC0F3803090
:100D3000002806D0A06920B1A26905F154014046FF
:100D40009047307FC0F3800040B1307F00F0FB005F
:100D50003077F96808001CBF40468847307FC0F3F1
:100D6000C00058B3307F00F0F70030772078009053
:100D7000242012E0009941432944496B0A8842F437
:100D800000420A80009941432944496B0A88C2F312
:100D90000E020A800099491E009100990029E9D1AC
:100DA000308C4BF6FF7108403084B08C40F48040AA
:100DB000B084396908001CBF40468847307FC0F3C3
:100DC000001040B1307F00F0EF0030777969080003
:100DD0001CBF40468847307FC0F3401050B1307F81
:100DE00000F0DF003077B968080003D04046BDE866
:100DF000FC410847BDE8F38181B000210091E82162
:100E0000DFF8842702E0009B5B1C0093009B4BB93A
:100E1000009B4B43D3589842F5D100984843104467
:100E2000001D00E0002001B070472DE9F04383B0C1
:100E3000814600200C46ADF8040020694168006836
:100E40000F1A00F0EAF92169C9686068DFF83C8789
:100E5000DFF83C57DFF83C678F4208EB401023D3A4
:100E600000210160207FC0B160882169C968B1FBA1
:100E7000F0F200FB121080B979B100F0ABFB3068E2
:100E800000F051F901E00098401E00F02AF81CBF64
:100E900000980028F7D100F051F9A069F8B1A269D3
:100EA0002146484690471AE00021016000F092FB7D
:100EB000306800F038F901E00098401E00F011F8A9
:100EC0001CBF00980028F7D12069C168CA1B41687F
:100ED00000F023F900F039F908EB41110860BDE892
:100EE000F7830090606805EB4010006801287047A8
:100EF000F0B583B004460D460020ADF800006968E7
:100F0000DFF8886606EB411108602869816842684D
:100F10000068891A40186988884205D2C0F3090020
:100F200040F40040ADF8000000F054FBDFF8640628
:100F3000DFF85C7600F062F901E00198401E019054
:100F4000686807EB4010006801281CBF0198002862
:100F5000F3D12869416800236A462846FFF77CFDE3
:100F6000696807EB4111002008602869BDF800207E
:100F7000C1685118C1602869BDF80020416811445A
:100F800041602869416802688068891A814204D2F8
:100F9000BDF800006988884208D200206861A8690D
:100FA00048B1AA69294620469047F7BD696806EB13
:100FB000411101200860F7BD086908B90420704795
:100FC0000260086942600869836000200A69D06095
:100FD0000098002818BF02280CD009D2DFF8B80505
:100FE000486101204968490101F1844141F8380F05
:100FF00000207047012070472DE9FC4100200C467D
:10100000ADF80400164620691F4608B9042079E0AF
:10101000617F012908BF0A2074D006602069DFF8CB
:101020007085DFF870554660206987602069C76069
:10103000089818B1022869D044D36CE00120607789
:1010400015E00098401E00F072F81CBF00980028C0
:10105000F7D120694168C2680068521A821800F00E
:101060005CF82069BDF804204168114441602069A2
:10107000C16842680068101A884204D200F0AAFAD7
:1010800000F050F8DFE7207FA8B16088B1FBF0F2F4
:1010900000FB121078B971B100F09CFA00F042F830
:1010A00001E00098401E00F042F81CBF00980028A4
:1010B000F7D100F043F8607F012804BF002060777B
:1010C000F9D01EE001206077DFF8D004606100F005
:1010D00081FA00F027F801E00098401E00F027F8A0
:1010E0001CBF00980028F7D101ABBAB231462046A8
:1010F000FFF776FC00F029F8490101F1844141F83D
:10110000380F0020BDE8F68100206077607F01285D
:10111000FAD0002060770120F4E701AB92B22046BC
:10112000FFF75EBC28686421B0FBF1F070470090C7
:10113000606808EB4010006801287047206901686A
:1011400001AB00222046FFF74BBC2069BDF804200C
:101150004168114441600120616870472DE9FC41FC
:1011600080460C46FFF748FE074607F1DC060020E4
:10117000706000F02FFA00F03FF801E00098401E88
:1011800000906068400100F1844028300068012828
:101190001CBF00980028F1D1DFF80454002301AAF5
:1011A00029462046FFF758FC00F037F82069056013
:1011B00018372169BDF80400C8603868FFF799FC4A
:1011C0000028FAD1BDF8040028B9387A04280CD1D7
:1011D0000020387209E03268100005D021464046F0
:1011E00090470020306000E07560216900200860B1
:1011F0002169C860BDE8F381DFF8980300686421C5
:10120000B0FBF1F0704710B50C46FFF7F5FD042177
:1012100080F8201000F001F810BD01E00020607798
:10122000607F0128FAD0704770B50446FFF7E4FDEF
:1012300005462046FFF76EFC00280CBF0120032066
:1012400068700026142070432844D0F884100800E9
:101250001CBF20468847761C052EF3DB70BDF0B519
:101260000446D04D05F108000021C0E9001183B00B
:101270002046FFF7C1FD0646B4F848004BF6FF7163
:101280000840A4F84800371D00F0A4F9FFF7B4FFA8
:1012900001E00098401E009078694168490101F121
:1012A00084412831096801291CBF00990029F0D127
:1012B000012301AA2946FFF7CFFB01203877002040
:1012C000C6F8E0002878E978AA782B7995F806C066
:1012D000287202EB01216A796878687203EB0222B6
:1012E000EB7969810CEB032395F808C0AA815FEACA
:1012F000DC1CEB8114BF4FF0020C4FF0030C87F89D
:101300001CC095F808C04FEA5C1C1CF0030C03D00D
:10131000BCF1010F25D031E006282FD10904090EB8
:101320000129A14802D002290AD027E039680978AA
:101330009DB2A94238BF0B4600F030F83A680BE086
:1013400079688A78C97802EB01219BB29942B8BFCB
:101350000B4600F023F87A68B9692046FFF74CFE87
:101360000CE092B2052A09DA142050433044826F0F
:10137000100003D005F1080120469047042038777B
:1013800001E000214177B869417F0129F9D0B4F823
:10139000480040F48040A4F84800F7BDB96988616E
:1013A000002000909BB2704770B582B004460D4695
:1013B0001646FFF721FD7C4AC1698A6100224A77FF
:1013C000012100913346C1692A462046FFF714FEE9
:1013D00073BDF8B50C4615461E46FFF70DFD0021FE
:1013E00002E01278511889B282689378D77803EBBB
:1013F0000723994255DA0A445378042B02BF5379E4
:101400006778BB42EDD19379A778BB4202BFD3790D
:10141000E778BB42E5D12378FF2B1CBF9778BB420E
:10142000DFD12A6014228368677800F03CF883F8E3
:1014300075708368A77800F036F883F87670836853
:10144000E77800F030F883F877708368676800F019
:101450002AF89F678368A76800F025F8DF6783682C
:10146000E76800F020F8C3F8807083680B449B782D
:101470005A4302442369C2F8843082689378D4784E
:1014800003EB0423994206DA535C591889B25318C6
:101490005B78042BF2D12868081A101830700020ED
:1014A000F2BD0120F2BD0B449B78534303447047C7
:1014B00080B5FFF7A1FC407802BD2DE9F04182B074
:1014C00080460F46FFF798FC0446002604F1080505
:1014D00014E08019417805290CD100210091C178D0
:1014E000427901F00303017941EA02228178404602
:1014F000FFF753F82868805D8619B6B228688178AE
:10150000C27801EB02218E42E3DB2848F86080219B
:101510004046FFF72CFA686100214046FFF727FAA2
:101520006969286104F164020A6102611E48486128
:101530000120087729691E4848610020C4F8E000AE
:10154000BDE8F6411B4800F053B938B50446FFF733
:1015500053FC05461848686080211848A86020465A
:10156000FFF705FAE86100212046FFF700FAE96974
:10157000A86105F164020A6102610B4A4A610C49E3
:10158000416131BD0000000050E3FF1F3800004200
:101590002800004290E1FF1FF10E00002B0E00001A
:1015A00008FBFF1FA4FBFF1F071200002912000009
:1015B0005D11000000210440F436000008370000EF
:1015C00010B50C462178FFF7D2F961688161A168F6
:1015D000016110BD364937480A785209052A15D8E5
:1015E000DFE802F0151503140F11334A137912784E
:1015F00003F01F035B1C12095843521CB0FBF2F0AE
:1016000005E02E4803E04FF4004000E00020097C94
:1016100001F00701062913D8DFE801F013040608DA
:101620000A0E100040080CE0032102E0800808E0E8
:101630000621B0FBF1F004E0C00802E0000900E080
:1016400000201F49086070471E481F4901605C2246
:101650001E49016000201E490870002114480174D1
:10166000012101758121017601771A490A700278FA
:1016700042F00202027002799207FCD500220A7140
:1016800001220A7211220A73017841F010010170DF
:101690000179C906FCD5017841F04001017001785B
:1016A000027902F0E00201F0E0018A42F7D17047CE
:1016B0000000014000093D0038000140A086010003
:1016C00090E1FF1F001C014051E5CC1AAE1A33E532
:1016D0000810014030000140DFF8E416096804E01A
:1016E0000A79824205D0D1F809100029F8D10020EA
:1016F0007047086870472DE9F041DDF818C0079C75
:10170000DFF8BC760668D7F800E0BCFBF4F56D1E88
:10171000BEF1000F03D138600EE04FF0000EDEF88E
:101720000980B8F1000FF8D0CEF809004FF000089A
:10173000C0F80980C0F805E097F804E080F804E0FC
:101740000EF101003871C6F82E10C6F82230C6F826
:1017500026C0C6F81E20C6F82A401221301DFEF70A
:1017600019FDF020307175767477B07900F0F000D3
:10177000B0710A20F072280EB075280CF075280A96
:101780003076200EB076200CF076200A307707F104
:1017900078003060CEE280B5DFF8242613798DF82A
:1017A00000304B78FE2B02D0FF2B0DD018E04B8879
:1017B000002B01BF8B88002BC988012910D1012281
:1017C0006946FFF7F1FD01BD4B88002B04BF8B88F4
:1017D000002B05D1C98819B90022FFF7E5FD01BD2D
:1017E000506A818C41F40071818401BDFFF760BEB5
:1017F000F0B58BB00446002002908DF80400FF2065
:101800008DF8180008208DF8190006208DF81A00B0
:1018100050208DF81B0001ABDFF8A805DFF8A055BC
:101820000FF2B90607906C6200200890099002AA96
:10183000DFF894050A9006A92046FFF7CAFD0027A5
:101840000DE005F10C0000F027F801210091E8619E
:101850000146402305F128022046FFF7ADFB9DF825
:101860000400874216DA0298C05DC7190298FFB2D9
:10187000384441780529F2D180788DF80C0004961F
:101880009DF80C000006DCD505F1680000F004F8B6
:101890002862E4E70BB0F0BD059003A92046FFF7EE
:1018A0008FBE70B5DFF818650446706A82B00D46C9
:1018B00090B1317A79B1FFF7FBFD03280BD10020FD
:1018C0003072012000902B46316A706A2246FFF781
:1018D00093FB012076BD002076BD00002DE9F04F7E
:1018E00087B080460020039004900590DFF8CCB4C8
:1018F0000869DFF8CC54D0F80090097809060BF19C
:101900000C070BF140041CD501202872D7F8009079
:101910005FEA090006D09BF82E0000F00F00FFF7E9
:10192000DBFEC847207B48B1022800F099800428DC
:1019300000F0A080052800F08B80A1E000F0A7F85F
:10194000A2E0C0681F2802BFD9F80000DFF87C14AD
:101950008842DBD10020207399F80D002A7900F02D
:101960000F009042EAD2D9F808A0BAF1000F08BFE0
:10197000002605D099F80C1009064CBF0126022656
:10198000FFF7AAFE02A9019104AB03A9009105AAE1
:10199000494600F089F89DF80800012808BF042195
:1019A00003D002280CBF0221052121739DF80820D5
:1019B000964204BF03998A4507D100210128396165
:1019C0001AD0022819D0052017E0BAF1000F04D16F
:1019D000039890B30220387516E00399012EAAEB04
:1019E00001010CD1039A524509D29DF80820002A22
:1019F00018BF012803D13961042020731DE0012E96
:101A000006D10398504503D005202073286A12E0C0
:101A1000022E06D10398824503D202202073396139
:101A20000BE0022E09D10398504506D002203875EC
:101A300005202073E869FEF7BAFF049808B90398F7
:101A400004900498A060039860600598206069E79E
:101A5000002038600D210BF11400FFF722FF11E088
:101A6000A3686B61012000902268E9694046FFF796
:101A7000A3FA03E0A1682068FFF713FF052002E046
:101A800000F005F80020207307B0BDE8F08F0020BB
:101A9000386005F12802402068610120E969009062
:101AA00040464B88FFF788BA2DE9F84F0446DFF827
:101AB0000CB3C748CBF814000D4691466868CBF8C4
:101AC00018001F2201208BF820000BF140080BF1B9
:101AD000210000F0B9F9002088F80C00C8F80000D7
:101AE0000A9F3860009908600B9E3070C8F80400A7
:101AF000E87B002842D003283BD012280ED01A28B9
:101B00001AD01E2807D025284FD0282857D02A2899
:101B100000F09D802F2800F0B680B8E0602000F033
:101B2000CAF82068C9F80000012030703968A86838
:101B300088421CD908461AE0687C00F03F003F2824
:101B400016D1042000F0B7F8A248C9F80000D4F874
:101B50002E2052688178002A0CBF41F0800101F0EC
:101B60007F01817001203070E87C042800D2386049
:101B700091E0E87C00F09FF8201D1BE0D8F81810D9
:101B800020468847D4F82E00007F00287CD001280A
:101B900004D100F089F80020207404E000F084F8FB
:101BA0003A2020740020607475E0082000F083F86B
:101BB00004F11600C9F80000012030706BE0D8F87D
:101BC000181020468847D4F82E00017F012962D0E2
:101BD000AA7C697C0068120442EA0161EA7C41EA5D
:101BE00002212A7D42EA010AA8B3A87DE97D00F01E
:101BF00054F80123D4F81E000268A97C687C09040B
:101C000041EA0060E97C40EA0120297DD8F81050C3
:101C100001432046A84700283DD1D4F81E000168A2
:101C2000C9F800100AF10102009940680860110E1D
:101C3000012030700FF28900CBF80C000BF132005C
:101C40000170110C4170110A8170C2701BE0D4F850
:101C50002E00406808B9012016E000208BF8200013
:101C6000E97DA87D00F019F8D4F81E00009A4168BB
:101C700011600068C9F80000022030700FF2BD004A
:101C8000CBF80C0007E000208BF8200003E00020D8
:101C90003860C9F80000BDE8F18F41EA0020D4F8AF
:101CA0002A10484338607047A07900F0F00040F0F7
:101CB0000200A0717047386000208BF82000704748
:101CC0002DE9F04100F06BF808F1400541EA00070A
:101CD0006868D4F82A10401A686029D0D4F81E0029
:101CE000026871783078D5F810C0090441EA0060C4
:101CF000B17840EA0120F178014301232046E04712
:101D0000C0B988F820007F1CD4F82A00A860D4F855
:101D10001E00006828600420287388F83570380E8B
:101D20003070380C88F83300380A88F8340001E045
:101D3000052028730020BDE8F08100002DE9F04166
:101D400000F02DF841EA0005D4F81E00026808F101
:101D500040070123D7F814C029462046E047A8B918
:101D600088F820006D1CD4F82A00B860D4F81E0052
:101D70000068386088F8355002203873280E3070BB
:101D8000280C88F83300280A88F834007868D4F8DA
:101D90002A10401A786004BF05203873CAE7DFF8BC
:101DA0001C8008F13206044671783078090441EA53
:101DB0000060B17840EA0120F178704710E5FF1F1C
:101DC00038E4FF1F97170000ED17000055534243FA
:101DD000555342536CE5FF1F30B583B000F017F840
:101DE00001D201203EBD00F01BF82468A04700206E
:101DF0003EBD000030B583B000F009F801D20120EB
:101E00003EBD00F00DF86468A04700203EBDD0F84C
:101E10002A4063436143D0F82640641A9C427047CD
:101E2000D0F82E40002501950095D0F82200E568F5
:101E3000401909182046704780B5D0F82E008168F7
:101E40008847002002BD000062B38B0708D0521EF5
:101E500011F8013B00F8013B00F024808B07F6D11C
:101E6000830740F0208000BF103A07D330B4B1E8B8
:101E70003810103AA0E83810F9D230BC530724BF0C
:101E8000B1E80810A0E8081044BF51F8043B40F83E
:101E9000043BD20724BF31F8022B20F8022B44BFA9
:101EA0000B7803707047083A07D3B1E80810083A76
:101EB00040F8043B40F804CBF7D25307E4E70000B6
:101EC0004178007807E0C178827842EA01214278BF
:101ED000007842EA012140EA0120704770B50446CB
:101EE0000D46A06A002685420BD0607801232A4661
:101EF00004F12C01FEF7D6F910B14FF0FF350126A1
:101F0000A562304670BD0269891E921E91422FBFA4
:101F100000204289406A02FB010070472DE9F04130
:101F20000D460468022D55D32069854252D220788F
:101F300001284FF0FF3604D04CD303283BD02CD3DC
:101F400048E0A189E06905EB5507B7FBF1F100F026
:101F50004EF800283FD1A1893846B0FBF1F201FBD1
:101F60001200204407F1010890F82C70E069B8FBDA
:101F7000F1F100F03CF800282DD1A089B8FBF0F178
:101F800000FB1180204490F82C0047EA0027E80766
:101F900054BFC7F30B063E091DE0A189E06949085B
:101FA00000F023F8B8B9A189680000F017F8FFF72E
:101FB00087FF06460FE0A189E069890800F015F85F
:101FC00048B9A189A80000F009F8FFF77CFF20F0CC
:101FD000704600E001263046BDE8F081B0FBF1F22A
:101FE00001FB120020442C307047B5FBF1F10918B9
:101FF000204673E72DE9F04104460D462668B5F505
:10200000001F30D215F01F0F2DD1A76825611FB911
:102010003078032801DB376A2FB931896809884293
:1020200021D2306A1BE07089B18901FB00F801E020
:10203000A5EB0805454539460ED32046FFF76EFF50
:10204000074617F1010F01D1012019E0022F0AD331
:1020500030698742ECD306E03046FFF754FFA061B9
:102060006761A06908B902200AE0B189B5FBF1F205
:102070001018A06101FB125030442C30E0610020A8
:10208000BDE8F081F8B504460E462069256800F1E8
:102090002007A06948B3B7F5001F26D2A989B7FB6E
:1020A000F1F201FB127141BB401C6169A06121B9D1
:1020B00029897809884220D315E06889401E0242A8
:1020C0001BD12046FFF72AFF022801D20220F2BDD1
:1020D00010F1010F01D10120F2BD2969884206D318
:1020E0000EB90020A0610020A0610420F2BD606153
:1020F00001462846FFF707FFA0612761A889B7FBC3
:10210000F0F100FB117028442C30E0610020F2BD9A
:1021100070B504460D4605F11A00FFF7D1FE0646DC
:102120002078032805D105F11400FFF7C9FE46EA1F
:102130000046304670BD2DE9F8430D4680462E68B6
:1021400008F1200720220B213846FEF775F8002001
:10215000002208230FF24C6C03E00B2B32D0082036
:102160000B23B15C521C212929DB2F2918BF5C29C4
:1021700006D1B35C2F2B14BF5C2B521CF9D01EE090
:102180002E29EAD098421DD280291BDA644600E04D
:10219000641C94F80090B9F1000F18BF8945F7D17D
:1021A0005FEA09040ED1A1F161041A2C08EB0004C6
:1021B0003CBF2039C9B284F82010401CD1E732441A
:1021C0002A6008B906200AE03878E52804BF05200F
:1021D00038702129B4BF04200020F8720020BDE827
:1021E000F283F2B50446256802E00098401C009096
:1021F000009800782F2818BF5C28F6D00020A06037
:1022000000980078202814D2802084F82B00002128
:102210002046FFF7EFFEF2BD2069A989B0FBF1F27D
:1022200001FB1200284400F12C012846FFF770FF43
:10223000A06069462046FFF77EFF01003CD126687A
:1022400000212046FFF7D6FE010025D1A1693046C6
:10225000FFF744FE01001FD1E1690A780AB90420A2
:102260001AE0CA7A02F03F02A271CA7A12070DD4AC
:1022700004F120020B2311F8017B12F801CB5B1E45
:10228000A7EB0C0701D0002FF5D02FB1002120467D
:10229000FFF7F8FE0100D9D094F82B10020001F0EE
:1022A000040104D0042808BF002905D103E019B9AE
:1022B000A079C006B0D40520F2BD10B502684FF079
:1022C000FF31BAB1134600E05B1C1C78212C01D30E
:1022D0003A2CF9D13A2C0CD112F8014B303C0A2C93
:1022E00008D29A4208BF002C04D15A1C0021026077
:1022F00000E00021084610BD38B504460020E0701B
:1023000004F128054FF0FF3028602046FFF7E6FD76
:1023100008B1042032BD04F22A20FFF7D1FD4AF6AD
:102320005521884201D0032032BD2879E92804D004
:10233000EB2804BFA879902811D104F16200FFF7BF
:10234000C2FD20F07F40A849884206D004F17E00FB
:10235000FFF7B9FDA549884201D1002032BD022016
:1023600032BD2DE9F0430C4685B000212160FFF716
:10237000A4FF070048BF0B2006D4DFF8748208EBE7
:10238000870046680EB90C20E9E02660307828B155
:1023900070780020C046C00740F1E0800020307017
:1023A00077707078FDF77CFFC00748BF0320EBD43F
:1023B000707806F10C020221FDF78EFFB0BBB089E8
:1023C000A0F50071B1F5606F30D8411E08422DD1E3
:1023D00000213046FFF790FF00270446022C23D14E
:1023E000002406EB04104FF4F5710844017919B18B
:1023F0000830FFF768FD00E000204DF82400641C61
:10240000042CEED3B9465DF8297027B13946304621
:10241000FFF772FF00E003200446022C04DB09F101
:102420000109B9F1040FEED3042C01D1012096E08B
:10243000022C80F28A8006F13700FFF741FDB18956
:10244000884212D106F14200FFF73AFD050004D19F
:1024500006F15000FFF737FD054606F139007561BA
:10246000C178B170012918BF02296ED14D4300789F
:102470007081010069D0411E084266D106F13D001D
:10248000FFF71EFDB1893081490990FBF1F201FB94
:102490001200002859D106F13F00FFF711FD04009A
:1024A00004D106F14C00FFF70EFD044606F13A0098
:1024B000FFF706FD002848D0B38931895B092A1847
:1024C00091FBF3F39A1894423FD3A31A7489B3FB98
:1024D000F4F3002B39D003244FF6F67C634538BF64
:1024E000022440F6F67C634538BF0124C019F06130
:1024F0009B1CD019032C3361B76170620FD106F1B8
:102500005600FFF7DDFC002804BF308900281CD1ED
:1025100006F15800FFF7D7FC316989000CE0A1B142
:10252000F06931692818022C0FBF490001EB410204
:1025300001F0010101EB52013062B089421E5118D5
:10254000B1FBF0F07169814201D20D2007E03470D7
:10255000B8F80000401CA8F80000F080002005B08A
:10256000BDE8F08338B505001CBF286800280C467C
:102570000AD0017841B1C188AA88914204D140783B
:102580000020C046C00703D500202060092032BDCE
:1025900028682060002032BD13B582B01446009137
:1025A0006846FFF78AFE002848BF0B201AD410495E
:1025B00001EB8000416809B100220A70029909B953
:1025C000416008E0029A002111700299416002986E
:1025D00008B1012C01D0002004E0002202A903A8C8
:1025E000FFF7BFFE04B010BD4641540046415433CE
:1025F000B4FBFF1FF2B504008CB008BF092018D04F
:1026000002F001052A4669460CA8FFF7AAFE06005B
:102610000CD100980C99019001A8FFF7E2FD06008B
:1026200004D19DF82F00000605D506260020206065
:1026300030460DB0F0BD9DF80A00C00648BF042624
:10264000F4D4089F00983946FFF762FDA06007F1B7
:102650001C00FFF738FCE060009820600098C088FC
:10266000A080257400206074E0616061E0E72DE9DE
:10267000F84305461E46002030608846914669466C
:102680002846FFF76FFF010001D1687C01007CD173
:10269000287CC00758BF072077D5E8686969401AC9
:1026A00048451DD881461BE06A6900988389B2FBC2
:1026B000F3FC03FB1C22009B1A44204641462C32AB
:1026C00028B112F8013B01F8013B401EF9D16869BD
:1026D00020186861A044306820183060A9EB040914
:1026E000B9F1000F50D0009968698989B0FBF1F207
:1026F00001FB120199BB00994989491E11EA0204A4
:102700000CD100280FBFA868A9692846FFF706FC6E
:10271000022808D310F1010F33D0A861A9690098ED
:10272000FFF7F1FB08B902202CE0009989892018F5
:10273000B9FBF1F797B1009949893A1991420246DC
:102740000098407838BF0F1B3B464146FDF7AAFD75
:10275000B8B90098808907FB00F4B8E7E8610099F0
:10276000686989890A1AB0FBF1F001FB00204C4628
:10277000814588BF0446E9690098FFF7AFFB002850
:1027800092D00120687400E00020BDE8F28310B50B
:1027900082B004466946FFF7E5FE010004BF002150
:1027A000216016BD222A2B2C3A3B3C3D3E3F5B5D0F
:1027B0007C7F000080B5DFF800044069012100F053
:1027C000B4FA00B1012002BD38B50024F0B10A000E
:1027D0001CD0DFF8E4532860012028742981AC81E3
:1027E0000021686900F0B3FA6869002100F04EFA30
:1027F00060B9002100F08CF800F089F8FF28287CEF
:1028000002D00228F8D102E0022800D0012420469C
:1028100032BD38B50024002840D00A003ED0DFF891
:10282000985368600120687469812981EC810121D5
:10283000686900F02BFA88BB6869002100F087FA0C
:102840006869012100F083FAAC8113E000F091FB8C
:1028500000F05DF8FF2805D06869032100F096FAC2
:102860000128F5D168690122FF2100F0B5FAA88995
:10287000401CA881A8892989884221466846E5D359
:1028800000F077FB00F043F8FF281CBF687C0228AB
:1028900018BF0328F6D1287C022801D0012403E0C8
:1028A000687C032808BF0224204632BD10B5C24C04
:1028B000A0892189884282B017D3002100F028F82E
:1028C00000F025F8FF2805D06069032100F05EFACA
:1028D0000128F5D16069002100F0E6F96069002166
:1028E00000F043FA0220207413BD0120207403215C
:1028F000606900F04BFA012808D1A089411CA18130
:1029000001222168095C606900F066FA13BDFF21AD
:10291000684600F02EBB38B5A74C6069002100F076
:1029200035FA012810D160690089C046606900212C
:1029300000F044FA6069012100F0B6F960690121F4
:1029400000F013FA03201CE06069012100F01EFA78
:10295000012817D1E589681CE08160690089C046BB
:1029600061684855012060746189E089884209D115
:102970006069012100F098F96069012100F0F5F922
:102980000220607431BD30B58BB0FFF713FF012812
:1029900045D08A488A4A01688A4C874D21F0300127
:1029A00041F0100101600023012111608649CB61D3
:1029B000036823F0C00343F0400303600123536026
:1029C00000238B61036823F4407343F48073036036
:1029D000012090600020486101207C4A2060106046
:1029E00000207B4A1060C86148610860CDF820D0A3
:1029F0001421784800907848019000200790012029
:102A00008DF824002846FDF77BFC686902A900F0D8
:102A100059F9002811BF01200120206000200BB0CF
:102A200030BD80B5FFF7C6FE012803D065490120FF
:102A30000860002002BD10B582B006208DF80000AD
:102A400000F01EF800F049F80121216016BD10B514
:102A500082B000208DF8000005208DF8010000F004
:102A60000FF80DF10100FFF7AFFE01216846FFF7F7
:102A7000D0FE9DF80000C007F7D40120206013BDF0
:102A80000020504C20600121704770B5534C2178D4
:102A9000012982B001D1032076BD012121700003FC
:102AA0002021020C000A8DF802008DF80010002091
:102AB0008DF801208DF80300FFF7BDFF414D002088
:102AC000286000F009F8064601202860FFF7BFFFE4
:102AD00000202070304676BD0421684674E62DE95A
:102AE000F8453E4E044630780128884608BF03204A
:102AF00031D00120307024031027324DFFF79BFFA7
:102B0000002028608DF8034002208DF80000042189
:102B1000200C8DF80100200A8DF80200FFF7DDFF80
:102B2000824688B94FF480714046FFF74DFE8246D9
:102B300050B90120286004F58074FFF788FF4FF436
:102B400080707F1E8044D9D101202860FFF77FFF6D
:102B5000002030705046BDE8F285F8B51F4D0C4698
:102B60002978012901D10320F2BD01212970000338
:102B70000321020C000A8DF802000020114E8DF88E
:102B800000108DF801208DF803003060FFF7A4FFDE
:102B9000070005D14FF480512046FFF73AFE074663
:102BA00001203060FFF753FF002028703846F2BD47
:102BB0000A480078704700001CE1FF1F1C360340E4
:102BC00004016642B88166421CA06642B841664272
:102BD000B8016642AD28000017290000A2FBFF1FC4
:102BE000012100F01F029140DFF88822400942F8DD
:102BF000201070470901002807D5DFF87C2200F07B
:102C00000F00104400F8041C7047DFF870221154C4
:102C1000704710B5400000290CBFC41D00F1080426
:102C200060B2FFF7DDFF032160B2FFF7E3FF012091
:102C300004F01F018840DFF8481264B2620941F8CD
:102C4000220010BD10B5400000290CBFC41D00F1CA
:102C5000080460B2FFF7C4FF012004F01F018840A0
:102C6000DFF8201264B2620941F822000F212046E9
:102C7000BDE81040BEE7886800474079C0F34000D7
:102C800018B14868010018BF0047704711B1012909
:102C900004D007E0417841F0080102E0417841F0BA
:102CA000100141700020704711B1012904D007E0E4
:102CB000417801F0F70102E0417801F0EF01417045
:102CC0000020704780B5DFF8C021472313604FF420
:102CD000407353600823D3604FF48063D3614A6923
:102CE00072B15278012A03D1427842F01002427048
:102CF0004A691278012A03D1427842F008024270F0
:102D0000886928B1DFF884214368936100685061C5
:102D1000087F012807D100210020FFF77AFF012159
:102D20000020FFF776FF002002BD80B50022427030
:102D3000027042710129027107D100210020FFF7C2
:102D400081FF01210020FFF77DFF002002BD11B1AE
:102D5000012904D007E0417841F0010113E04178F6
:102D600041F00201FAE70420704711B1012904D0B3
:102D700007E0417801F0FE0105E0417801F0FD0136
:102D8000FAE70420704741700020704700220329B1
:102D900012D8DFE801F002060A0E4079C0F3C00243
:102DA0000AE04079C0F3800206E04079C0F34002B7
:102DB00002E0407900F001021046704750B119B1AD
:102DC000491E022904D905E0417941F08001417191
:102DD0000020704704207047012A02780CBF42F09F
:102DE000010202F0FE02027057E029484FF402513E
:102DF00001604FF4407141605921C1604FF40041BE
:102E0000016143F6FF41C161002070472149096813
:102E100042F21072B1FBF2F1427842F0800242704D
:102E20000A46511E4AB14278D2091EBF4278C2F307
:102E30008012002AF4D000207047092070471549FD
:102E4000096842F21072B1FBF2F10A46511E6AB1F2
:102E5000427802F03E0242704278D20902BF4278C4
:102E6000C2F38012002AF0D1002070470920704779
:102E70000000000080E200E018ED00E000E400E067
:102E800000E100E080E100E00080034034E1FF1F4A
:102E90000083034090E1FF1F00BF018100207047C5
:102EA0000079C0F3801070470B292FD8DFE801F0BC
:102EB000060A0C0E1014171B1D1F23254079C0F3A2
:102EC000C00223E0407904E0407911E0407919E044
:102ED000407DC0F3800219E00079C20916E0007954
:102EE000C0F3401212E0007902E000790AE0407875
:102EF000C0F340020AE0407804E04178C90904D1F7
:102F00004078800900F0010200E00022D0B2704752
:102F1000072906D00A2902BF417801F0BE0141709D
:102F200003E0017901F0FD0101710020704700000C
:102F30002E482F492F4A4160F021117000218160F5
:102F4000072101607047294900200860704710B5CB
:102F50000C24294B60431844002341604370012135
:102F60008260017010BD0C22234950430844407810
:102F7000704772B6204AB2F9242062B60B0008BF2F
:102F800002800DD00388D21A12B2012AB8BF02F50E
:102F9000803212B28A4203DBC9180180FF207047D9
:102FA0000020704738B51148134C00680090A08C81
:102FB000401CA0840098400717D500250C206843CA
:102FC00020440178012901BF41684A1E426000295E
:102FD00008D10121417000218268017010001CBFDE
:102FE000002090476D1C032DE8DB31BD10E000E0B0
:102FF0003F7E050023ED00E07CFBFF1F38B5DFF8C6
:103000009C13DFF89C53002008600122DFF8941322
:1030100008600023DFF8901308600024DFF88C13A9
:103020000860DFF88C130860DFF888130860DFF8A9
:10303000881308600121DFF884030160DFF8801342
:103040000A6000F060F800235360012383608B6006
:1030500000209060696A0FF29030FDF75DF908B9C1
:1030600005F124042C6631BD38B5D649CC4C00207E
:103070000860A1A5FFF75CFFFFF785FC0122294648
:1030800004F16400FFF788FAA8B901220FF2703149
:10309000201DFFF7AFFA10B10020207004E00120DE
:1030A0002070201DFFF773FB0022294600F0DEF898
:1030B00008B1012032BD00F0E3F9FDF750F800F04F
:1030C0004FFC42F2900022181821302000F0FFFB44
:1030D000002032BD80B5B948012101600122B84904
:1030E0000A60002300F00FF800205060FFF799FC01
:1030F00000F004FD00220321B348FDF78CFABDE87F
:103100000140FFF720BFB14A1360012343604B60C9
:1031100070472DE9FC4100220321AB48A04CFDF78C
:103120007AFA0FF2D4180122414604F16400FFF745
:1031300033FA08B9206E10B90120BDE8F681217874
:10314000012908D1816A080005D04FF48010008859
:10315000012808BF8847206E866842F2B000221816
:1031600018211C2000F0B3FB0FF2451205210020AE
:10317000FFF7EDFE01220FF27C21201DFFF73AFA46
:10318000002869D12069001F864262D3216E0E7B20
:103190000D690027002000E07F1CFFB23946B142D4
:1031A00003DA00F05CF80100F6D0216E8D692A6820
:1031B000126812F1010F0BD00E7D002700E07F1C7A
:1031C000FFB23946B14203DA00F049F80100F6D007
:1031D00000283ED1206E81684068002204E0036828
:1031E00013F1010F35D1521CB2EB910FF7D3201D13
:1031F00000F08AF868BB00210091019001AB042225
:103200006946201DFFF733FA002610BB9DF8022007
:103210009DF803109DF80100120442EA016141EAA1
:1032200000209DF80010226E526808432169091F92
:10323000002303E09F185B1C3F78BE198B42F9D333
:10324000864206D1201DFFF7A2FA00F00DF80020FB
:1032500073E7201DFFF79BFA00F006F86CE755F8BE
:103260002100216EC96A0847002241460020FFF76D
:1032700093B938B54A48016E4B688868CA69C41862
:1032800018681D1D90422D6807D3096A8918884265
:1032900003D29D4201D3A54201D3012032BD4C4946
:1032A0000B6000F02BF8284600F02CF8002032BD0F
:1032B0004448484A0168491E8941C90F01600020FD
:1032C0000F21FFF744BE82B03C480168491E894186
:1032D000C90F01600221019101994A1E0029019242
:1032E000F3D0002100913C4A009991423EBF0099E1
:1032F000491C0091F8D3EFE7303A000080F30888CA
:1033000070470000004770472DE9F84F244D2969A8
:10331000091FC1F30B060F0B8046296E0020009099
:1033200081464C684FF4805A15E000F057F86B4620
:10333000524659464046FFF79AF958BB2B6E5B6BD5
:103340004FF40062594620469847010022D104F507
:10335000805409F1010941F29001B94505EB010BD7
:10336000E3D3C6B100F03AF86B46324659464046C0
:10337000FFF77DF9002804BF009886420AD12B6E22
:103380005B6BF00748BF761C720859462046984789
:10339000010000D00120BDE8F28F00002822664223
:1033A00020C0FF1F284266422802664290206642E3
:1033B000904066429000664210A06642A881664234
:1033C000A8416642AC81664200210440A8016642E1
:1033D00008ED00E0B132000044950800FF2251469C
:1033E0005846FCF729BF00004D61696E466C617359
:1033F0006800000050474D4B45592E62696E000031
:1034000064456350674D2E62696E0000F8B514463E
:103410001D460E0B002704E04FF48050761C044438
:103420007F1CB7EB153F07D221463046FFF795FBCF
:103430000028F1D00120F2BD0020F2BDF8B51446FD
:103440001D460E0B002701E0761C7F1CB7EB153FD5
:103450000BD23046FFF719FB28B921463046FFF75B
:103460003EFB0028F0D00120F2BD0020F2BD10B5D7
:103470000446FFF79DFB00B101202077002010BD1E
:1034800000B583B0FCF728FE4FF480500549019049
:1034900000230869009001F1300201F12000FEF7DD
:1034A0002AF907BD18E3FF1F38B55549554D09687E
:1034B000CC0901462868FFF7EFFC2868FFF7A6FC57
:1034C00078B928680A21FFF7EFFC012805D02868A1
:1034D000FFF7E6FC012806D132BD2046441E002835
:1034E000EFD1012032BD00F00AF8012806D028688B
:1034F0000021FFF7D9FC012818BF002032BD286841
:103500000921FFF7D1BC70B53D4C3E4E2168CD0975
:1035100001463068FFF7C0FC30680A21FFF7F8FC6D
:1035200030680A21FFF7C0FC01280DD12068C509C9
:1035300030680221FFF7B8FC01280AD13068FFF794
:10354000AFFC01280BD170BD2846451E0028E7D1ED
:1035500003E02846451E0028EAD1012070BD3068EE
:10356000FFF7CEFF012806D030680021FFF79CFC52
:10357000012818BF002070BD38B52148214D0068D2
:10358000C4092868FFF75BFC70B928680721FFF7BA
:103590008BFC012804D1FFF7B2FF012806D132BD10
:1035A0002046441E0028F0D1012032BD28680721A2
:1035B000FFF7AEFC28680A21FFF7AAFC002032BD05
:1035C00000B5114887B0016821F0407141F00071E9
:1035D000016001220D490A6000230D4A136003684F
:1035E00023F0406343F000630360012048606946B4
:1035F0000020506003480068FFF7F7FB07B000BDEC
:1036000090E1FF1F8CE1FF1F1C36034084026642DD
:103610005CA0664270B5FFF7F1FC114D28680124EB
:10362000002802BF0F4E3068002813D1FFF71CFDA1
:1036300068B900F019F828680028FCD13068002823
:10364000F9D100F011F8FFF764FD00B10024FFF795
:1036500041FD0CB1FFF70DFEFFF735FE002070BDF8
:10366000286266429060664228680128FCD1306872
:103670000128F9D1704719E050F8041BCB0744BF6B
:10368000A9F101035918121F0023042A41F8043B31
:10369000F9D25FEA827C0B4604D54FF0000CA1F80A
:1036A00000C09B1CD10744BF0021197050F8042BA7
:1036B000002AE1D17047000008480068C00703D520
:1036C00007490848FFF7D7BA704707480068C0079E
:1036D00003D503490348FFF7D0BA704730100340C1
:1036E00044E1FF1F0080034034100340FDF71DBA82
:1036F000FDF71EBA1201100100000040882E0110D3
:10370000010000000001000009022000010100008A
:10371000FA090400000208065000070501024000F3
:1037200000070582024000004FFFFFFFBC100000B1
:1037300008EBFF1F0000000023CCFFFF5004000037
:10374000E005000000C0FF1F0120C046002801D096
:10375000FCF740FE0020C046C046FFF75BFF00F0CC
:1037600000F800F001B800000746384600F002F803
:10377000FBE7000080B5C046C046024A1100182091
:10378000ABBEFBE726000200014880470148004726
:103790004916000099370000C046C046C046C046E2
:1037A000FFF7D2FFFFF7FEBFFFF7FEBFFFF7FEBF39
:1037B000FFF7FEBFFFF7FEBFFFF7FEBFFFF7FEBF3D
:1037C000FFF7FEBFFFF7FEBFFFF7FEBFFFF7FEBF2D
:1037D000FFF7FEBFFFF7FEBFFFF7FEBFFFF7FEBF1D
:1037E000FFF7FEBFFFF7FEBFFFF7FEBFFFF7FEBF0D
:1037F000FFF7FEBFFFF7FEBFFFF7FEBFFFF7FEBFFD
:10380000FFF7FEBFFFF7FEBFFFF7FEBFFFF7FEBFEC
:10381000FFF7FEBFFFF7FEBFFFF7FEBFFFF7FEBFDC
:10382000FFF7FEBFFFF7FEBFFFF7FEBFFFF7FEBFCC
:10383000FFF7FEBFF8B50446FCF768FD05467820A3
:10384000FFF732FE06464020FFF75DFE06432046A6
:10385000FFF759FE0446FFF78FFE0746284680F320
:10386000108844EA06003843F2BD70B50446FCF700
:103870004DFD05467820FFF717FE060004D02846C8
:1038800080F31088304670BD0020FFF73CFE0646EE
:103890002046FFF738FE40EA0604FFF76DFE0646B5
:1038A000284680F3108846EA040070BD10B504462F
:1038B000A1F15000C0B2FFF7D8FF200940F010007E
:1038C000FFF7D3FF04F00F00BDE81040CDE72DE96E
:1038D000F8430446AC48407828B3107802F1020857
:1038E00005195078EDB24618802CACBF0122002299
:1038F0004029ACBF4FF0010C4FF0000C812DF6B207
:10390000ACBF4FF0010E4FF0000E412E4CEA020208
:10391000ACBF012700274EEA02023A4303D1AC4272
:10392000B8BFB14201DB002018E07605CF080AE0FD
:1039300018F8010BFFF77EFF09F101095FFA89F919
:10394000A945F5DB7F1CFFB2B7EB166F05DA3946E8
:103950002046FFF7ABFFA146F0E70120BDE8F28368
:103960002DE9F04F85B0FFF72BFE0022FA21012050
:10397000FFF7EDFA0120FFF7F6FA0028FAD0AE20A3
:10398000FFF773FF002840F0AA80FFF76EFF0446A0
:103990001020FFF76AFF00198DF80E004020FFF796
:1039A00064FF8DF80D008120FFF75FFF8DF80C009C
:1039B000754C2078FFF759FF8DF80B00A120FFF719
:1039C00054FF8DF80A00C820FFF74FFF8DF809005B
:1039D000A620FFF74AFF8DF80800A820FFF745FF53
:1039E0008DF807003F20FFF740FF8DF80600D32039
:1039F000FFF73BFF8DF805000020FFF736FF8DF83D
:103A00000400D520FFF731FF8DF803008020FFF779
:103A10002CFF8DF80200D920FFF727FF8DF8010059
:103A2000F120FFF722FF8DF80000DA20FFF71DFFDD
:103A300005461220FFF719FF0646DB20FFF715FFAA
:103A400007464020FFF711FF80462020FFF70DFFBB
:103A500081460220FFF709FF8246A420FFF705FFF9
:103A60008346A620FFF701FF9DF80E109DF80D205C
:103A700051189DF80C2051189DF80B2051189DF8F5
:103A80000A2051189DF8092051189DF80820511856
:103A90009DF8072051189DF8062051189DF8052023
:103AA00051189DF8042051189DF8032051189DF8D5
:103AB000022051189DF8012051189DF8002051183E
:103AC00069187118791841444944514459444518BA
:103AD000AF20FFF7CAFE4019C0B20B2801DB00205F
:103AE00009E0012060704023002000908022002126
:103AF00000F00EF8012005B0BDE8F08F22484078B4
:103B000000B9704780B5AE20FFF7AFFE012002BDBF
:103B10002DE9F84305461C48407890469946C8B1BF
:103B2000802DACBF012000204029ACBF0122002223
:103B3000B8F1810FACBF01230023B9F1410FACBF35
:103B40000124002410431843204303D1454538BFC6
:103B5000494501D3002014E0089CCE080CE0F1B2E6
:103B60002846FFF7A3FE2F462046FFF763FE7F1C83
:103B7000F8B24045F8D3761CF0B2B0EBD90FEED3D3
:103B80000120BDE8F283000006E7FF1F100100409E
:103B90000001120105120204120304122003110491
:103BA000124004F001136020000113E8332721487C
:103BB0002002C0030004322001C0FF1F08121008B9
:103BC000210C43008047100471E5FF1F29E6101106
:103BD00001527908F1FF01F1FF01F1FF01F1FF014D
:103BE000F1FF01F1FF01F1FF01F1FF01F1FF01F12F
:103BF000FF01F1FF01F1FF01F1FF01F1FF01F1FF11
:103C000001F1FF01F1FF01F1FF01F1FF01F1FF01FE
:103C1000F1FF01F1FF01F1FF01F1FF01F1FF01F1FE
:103C2000FF01F1FF01F1FF01F1FF01F1FF01F13FA0
:103C300001601F1E08003F4040403F007F4141227D
:103C40001C0000417F4100004649494931007F087E
:103C500014224148203021FC242424180018A4A454
:103C6000A47C007C080404080020545454780038D4
:103C70004444487F0000447D400018527824C0032B
:103C8000006060000006F10401F0010080034004C0
:103C9000F10B01128320A104F10B012120F006FF9A
:103CA000A24A04002104400001F15E0110030D341A
:103CB00000003D04676F348ACD0C23CF48FBC0223F
:103CC0001308EB10121012F5DEBCF25F01ED1002CA
:103CD0008006025B74201248554144412020205543
:103CE00053422053746F7261676520016002302E69
:103CF00030311C122D1D2C042D4452495645D1241F
:103D0000F763C004981003D91D0000F5044F391E55
:103D10005E25102E2DE9F04782B00746002572B6C9
:103D20004FF0804401202060012F206802D12348F9
:103D30000068009040F6A826AA20308040F254582F
:103D40005520A8F8F1110E200300F039F8100810E2
:103D5000222000F099F8012803D1F020288028883B
:103D60000425012F21D1009FDFF850904FF0020A67
:103D700000F025F8A0281007A9F80070484600F0C8
:103D8000832C100104D0B946200CBFB2B84205D034
:103D90000021F0200880042512100D0098070CBAAD
:103DA000F1010A09F10209E2D102881C09206862C6
:103DB000B62846BDE8F68700C82523100088418450
:103DC0006003704770B504B410074601203060AA44
:103DD000213068AC200220552201AC1006510A8027
:103DE00080220280AA041255621003302020802015
:103DF000807243AC100304252088023832306430CE
:103E00000E70BD2DE9F84304460D4616464FF000EE
:103E100008581003470120386054100729386800FB
:103E20002E1DE0AA20C622005C215232A00E43289B
:103E300088582217587004D02088298888D6100BFB
:103E40004FF004082088A41CAD1C761EE0D01001A1
:103E50003860386C1240D02010F2830021028803B1
:103E60008853405B0607D59206F8D50E000C5A40E1
:0C3E70005206F3D50121084670471F00E0
:020000040010EA
:020000000100FD
:040000050000379927
:00000001FF
